{
  "contractName": "HappyPlanetClub",
  "abi": [
    {
      "inputs": [
        {
          "internalType": "string",
          "name": "_baseTokenURI",
          "type": "string"
        }
      ],
      "stateMutability": "nonpayable",
      "type": "constructor"
    },
    {
      "inputs": [],
      "name": "ApprovalCallerNotOwnerNorApproved",
      "type": "error"
    },
    {
      "inputs": [],
      "name": "ApprovalQueryForNonexistentToken",
      "type": "error"
    },
    {
      "inputs": [],
      "name": "ApproveToCaller",
      "type": "error"
    },
    {
      "inputs": [],
      "name": "BalanceQueryForZeroAddress",
      "type": "error"
    },
    {
      "inputs": [],
      "name": "InvalidQueryRange",
      "type": "error"
    },
    {
      "inputs": [],
      "name": "MintERC2309QuantityExceedsLimit",
      "type": "error"
    },
    {
      "inputs": [],
      "name": "MintToZeroAddress",
      "type": "error"
    },
    {
      "inputs": [],
      "name": "MintZeroQuantity",
      "type": "error"
    },
    {
      "inputs": [],
      "name": "OwnerQueryForNonexistentToken",
      "type": "error"
    },
    {
      "inputs": [],
      "name": "OwnershipNotInitializedForExtraData",
      "type": "error"
    },
    {
      "inputs": [],
      "name": "TransferCallerNotOwnerNorApproved",
      "type": "error"
    },
    {
      "inputs": [],
      "name": "TransferFromIncorrectOwner",
      "type": "error"
    },
    {
      "inputs": [],
      "name": "TransferToNonERC721ReceiverImplementer",
      "type": "error"
    },
    {
      "inputs": [],
      "name": "TransferToZeroAddress",
      "type": "error"
    },
    {
      "inputs": [],
      "name": "URIQueryForNonexistentToken",
      "type": "error"
    },
    {
      "anonymous": false,
      "inputs": [
        {
          "indexed": true,
          "internalType": "address",
          "name": "owner",
          "type": "address"
        },
        {
          "indexed": true,
          "internalType": "address",
          "name": "approved",
          "type": "address"
        },
        {
          "indexed": true,
          "internalType": "uint256",
          "name": "tokenId",
          "type": "uint256"
        }
      ],
      "name": "Approval",
      "type": "event"
    },
    {
      "anonymous": false,
      "inputs": [
        {
          "indexed": true,
          "internalType": "address",
          "name": "owner",
          "type": "address"
        },
        {
          "indexed": true,
          "internalType": "address",
          "name": "operator",
          "type": "address"
        },
        {
          "indexed": false,
          "internalType": "bool",
          "name": "approved",
          "type": "bool"
        }
      ],
      "name": "ApprovalForAll",
      "type": "event"
    },
    {
      "anonymous": false,
      "inputs": [
        {
          "indexed": true,
          "internalType": "uint256",
          "name": "fromTokenId",
          "type": "uint256"
        },
        {
          "indexed": false,
          "internalType": "uint256",
          "name": "toTokenId",
          "type": "uint256"
        },
        {
          "indexed": true,
          "internalType": "address",
          "name": "from",
          "type": "address"
        },
        {
          "indexed": true,
          "internalType": "address",
          "name": "to",
          "type": "address"
        }
      ],
      "name": "ConsecutiveTransfer",
      "type": "event"
    },
    {
      "anonymous": false,
      "inputs": [
        {
          "indexed": true,
          "internalType": "address",
          "name": "previousOwner",
          "type": "address"
        },
        {
          "indexed": true,
          "internalType": "address",
          "name": "newOwner",
          "type": "address"
        }
      ],
      "name": "OwnershipTransferred",
      "type": "event"
    },
    {
      "anonymous": false,
      "inputs": [
        {
          "indexed": false,
          "internalType": "address",
          "name": "account",
          "type": "address"
        }
      ],
      "name": "Paused",
      "type": "event"
    },
    {
      "anonymous": false,
      "inputs": [
        {
          "indexed": false,
          "internalType": "address",
          "name": "account",
          "type": "address"
        }
      ],
      "name": "Presaled",
      "type": "event"
    },
    {
      "anonymous": false,
      "inputs": [
        {
          "indexed": true,
          "internalType": "address",
          "name": "from",
          "type": "address"
        },
        {
          "indexed": true,
          "internalType": "address",
          "name": "to",
          "type": "address"
        },
        {
          "indexed": true,
          "internalType": "uint256",
          "name": "tokenId",
          "type": "uint256"
        }
      ],
      "name": "Transfer",
      "type": "event"
    },
    {
      "anonymous": false,
      "inputs": [
        {
          "indexed": false,
          "internalType": "address",
          "name": "account",
          "type": "address"
        }
      ],
      "name": "Unpaused",
      "type": "event"
    },
    {
      "anonymous": false,
      "inputs": [
        {
          "indexed": false,
          "internalType": "address",
          "name": "account",
          "type": "address"
        }
      ],
      "name": "Unpresaled",
      "type": "event"
    },
    {
      "inputs": [],
      "name": "allowedPublic",
      "outputs": [
        {
          "internalType": "bool",
          "name": "",
          "type": "bool"
        }
      ],
      "stateMutability": "view",
      "type": "function",
      "constant": true
    },
    {
      "inputs": [
        {
          "internalType": "address",
          "name": "to",
          "type": "address"
        },
        {
          "internalType": "uint256",
          "name": "tokenId",
          "type": "uint256"
        }
      ],
      "name": "approve",
      "outputs": [],
      "stateMutability": "nonpayable",
      "type": "function"
    },
    {
      "inputs": [
        {
          "internalType": "address",
          "name": "owner",
          "type": "address"
        }
      ],
      "name": "balanceOf",
      "outputs": [
        {
          "internalType": "uint256",
          "name": "",
          "type": "uint256"
        }
      ],
      "stateMutability": "view",
      "type": "function",
      "constant": true
    },
    {
      "inputs": [],
      "name": "baseTokenURI",
      "outputs": [
        {
          "internalType": "string",
          "name": "",
          "type": "string"
        }
      ],
      "stateMutability": "view",
      "type": "function",
      "constant": true
    },
    {
      "inputs": [
        {
          "internalType": "uint256",
          "name": "tokenId",
          "type": "uint256"
        }
      ],
      "name": "explicitOwnershipOf",
      "outputs": [
        {
          "components": [
            {
              "internalType": "address",
              "name": "addr",
              "type": "address"
            },
            {
              "internalType": "uint64",
              "name": "startTimestamp",
              "type": "uint64"
            },
            {
              "internalType": "bool",
              "name": "burned",
              "type": "bool"
            },
            {
              "internalType": "uint24",
              "name": "extraData",
              "type": "uint24"
            }
          ],
          "internalType": "struct IERC721A.TokenOwnership",
          "name": "",
          "type": "tuple"
        }
      ],
      "stateMutability": "view",
      "type": "function",
      "constant": true
    },
    {
      "inputs": [
        {
          "internalType": "uint256[]",
          "name": "tokenIds",
          "type": "uint256[]"
        }
      ],
      "name": "explicitOwnershipsOf",
      "outputs": [
        {
          "components": [
            {
              "internalType": "address",
              "name": "addr",
              "type": "address"
            },
            {
              "internalType": "uint64",
              "name": "startTimestamp",
              "type": "uint64"
            },
            {
              "internalType": "bool",
              "name": "burned",
              "type": "bool"
            },
            {
              "internalType": "uint24",
              "name": "extraData",
              "type": "uint24"
            }
          ],
          "internalType": "struct IERC721A.TokenOwnership[]",
          "name": "",
          "type": "tuple[]"
        }
      ],
      "stateMutability": "view",
      "type": "function",
      "constant": true
    },
    {
      "inputs": [
        {
          "internalType": "uint256",
          "name": "tokenId",
          "type": "uint256"
        }
      ],
      "name": "getApproved",
      "outputs": [
        {
          "internalType": "address",
          "name": "",
          "type": "address"
        }
      ],
      "stateMutability": "view",
      "type": "function",
      "constant": true
    },
    {
      "inputs": [
        {
          "internalType": "address",
          "name": "owner",
          "type": "address"
        },
        {
          "internalType": "address",
          "name": "operator",
          "type": "address"
        }
      ],
      "name": "isApprovedForAll",
      "outputs": [
        {
          "internalType": "bool",
          "name": "",
          "type": "bool"
        }
      ],
      "stateMutability": "view",
      "type": "function",
      "constant": true
    },
    {
      "inputs": [],
      "name": "maxTotalSupply",
      "outputs": [
        {
          "internalType": "uint256",
          "name": "",
          "type": "uint256"
        }
      ],
      "stateMutability": "view",
      "type": "function",
      "constant": true
    },
    {
      "inputs": [],
      "name": "name",
      "outputs": [
        {
          "internalType": "string",
          "name": "",
          "type": "string"
        }
      ],
      "stateMutability": "view",
      "type": "function",
      "constant": true
    },
    {
      "inputs": [],
      "name": "owner",
      "outputs": [
        {
          "internalType": "address",
          "name": "",
          "type": "address"
        }
      ],
      "stateMutability": "view",
      "type": "function",
      "constant": true
    },
    {
      "inputs": [
        {
          "internalType": "uint256",
          "name": "tokenId",
          "type": "uint256"
        }
      ],
      "name": "ownerOf",
      "outputs": [
        {
          "internalType": "address",
          "name": "",
          "type": "address"
        }
      ],
      "stateMutability": "view",
      "type": "function",
      "constant": true
    },
    {
      "inputs": [],
      "name": "paused",
      "outputs": [
        {
          "internalType": "bool",
          "name": "",
          "type": "bool"
        }
      ],
      "stateMutability": "view",
      "type": "function",
      "constant": true
    },
    {
      "inputs": [],
      "name": "presalePrice",
      "outputs": [
        {
          "internalType": "uint256",
          "name": "",
          "type": "uint256"
        }
      ],
      "stateMutability": "view",
      "type": "function",
      "constant": true
    },
    {
      "inputs": [],
      "name": "presaled",
      "outputs": [
        {
          "internalType": "bool",
          "name": "",
          "type": "bool"
        }
      ],
      "stateMutability": "view",
      "type": "function",
      "constant": true
    },
    {
      "inputs": [],
      "name": "price",
      "outputs": [
        {
          "internalType": "uint256",
          "name": "",
          "type": "uint256"
        }
      ],
      "stateMutability": "view",
      "type": "function",
      "constant": true
    },
    {
      "inputs": [],
      "name": "renounceOwnership",
      "outputs": [],
      "stateMutability": "nonpayable",
      "type": "function"
    },
    {
      "inputs": [
        {
          "internalType": "address",
          "name": "from",
          "type": "address"
        },
        {
          "internalType": "address",
          "name": "to",
          "type": "address"
        },
        {
          "internalType": "uint256",
          "name": "tokenId",
          "type": "uint256"
        }
      ],
      "name": "safeTransferFrom",
      "outputs": [],
      "stateMutability": "nonpayable",
      "type": "function"
    },
    {
      "inputs": [
        {
          "internalType": "address",
          "name": "from",
          "type": "address"
        },
        {
          "internalType": "address",
          "name": "to",
          "type": "address"
        },
        {
          "internalType": "uint256",
          "name": "tokenId",
          "type": "uint256"
        },
        {
          "internalType": "bytes",
          "name": "_data",
          "type": "bytes"
        }
      ],
      "name": "safeTransferFrom",
      "outputs": [],
      "stateMutability": "nonpayable",
      "type": "function"
    },
    {
      "inputs": [
        {
          "internalType": "address",
          "name": "operator",
          "type": "address"
        },
        {
          "internalType": "bool",
          "name": "approved",
          "type": "bool"
        }
      ],
      "name": "setApprovalForAll",
      "outputs": [],
      "stateMutability": "nonpayable",
      "type": "function"
    },
    {
      "inputs": [
        {
          "internalType": "bytes4",
          "name": "interfaceId",
          "type": "bytes4"
        }
      ],
      "name": "supportsInterface",
      "outputs": [
        {
          "internalType": "bool",
          "name": "",
          "type": "bool"
        }
      ],
      "stateMutability": "view",
      "type": "function",
      "constant": true
    },
    {
      "inputs": [],
      "name": "symbol",
      "outputs": [
        {
          "internalType": "string",
          "name": "",
          "type": "string"
        }
      ],
      "stateMutability": "view",
      "type": "function",
      "constant": true
    },
    {
      "inputs": [
        {
          "internalType": "uint256",
          "name": "tokenId",
          "type": "uint256"
        }
      ],
      "name": "tokenURI",
      "outputs": [
        {
          "internalType": "string",
          "name": "",
          "type": "string"
        }
      ],
      "stateMutability": "view",
      "type": "function",
      "constant": true
    },
    {
      "inputs": [
        {
          "internalType": "address",
          "name": "owner",
          "type": "address"
        }
      ],
      "name": "tokensOfOwner",
      "outputs": [
        {
          "internalType": "uint256[]",
          "name": "",
          "type": "uint256[]"
        }
      ],
      "stateMutability": "view",
      "type": "function",
      "constant": true
    },
    {
      "inputs": [
        {
          "internalType": "address",
          "name": "owner",
          "type": "address"
        },
        {
          "internalType": "uint256",
          "name": "start",
          "type": "uint256"
        },
        {
          "internalType": "uint256",
          "name": "stop",
          "type": "uint256"
        }
      ],
      "name": "tokensOfOwnerIn",
      "outputs": [
        {
          "internalType": "uint256[]",
          "name": "",
          "type": "uint256[]"
        }
      ],
      "stateMutability": "view",
      "type": "function",
      "constant": true
    },
    {
      "inputs": [],
      "name": "totalSupply",
      "outputs": [
        {
          "internalType": "uint256",
          "name": "",
          "type": "uint256"
        }
      ],
      "stateMutability": "view",
      "type": "function",
      "constant": true
    },
    {
      "inputs": [
        {
          "internalType": "address",
          "name": "from",
          "type": "address"
        },
        {
          "internalType": "address",
          "name": "to",
          "type": "address"
        },
        {
          "internalType": "uint256",
          "name": "tokenId",
          "type": "uint256"
        }
      ],
      "name": "transferFrom",
      "outputs": [],
      "stateMutability": "nonpayable",
      "type": "function"
    },
    {
      "inputs": [
        {
          "internalType": "address",
          "name": "newOwner",
          "type": "address"
        }
      ],
      "name": "transferOwnership",
      "outputs": [],
      "stateMutability": "nonpayable",
      "type": "function"
    },
    {
      "inputs": [],
      "name": "totalMinted",
      "outputs": [
        {
          "internalType": "uint256",
          "name": "",
          "type": "uint256"
        }
      ],
      "stateMutability": "view",
      "type": "function",
      "constant": true
    },
    {
      "inputs": [],
      "name": "totalBurned",
      "outputs": [
        {
          "internalType": "uint256",
          "name": "",
          "type": "uint256"
        }
      ],
      "stateMutability": "view",
      "type": "function",
      "constant": true
    },
    {
      "inputs": [
        {
          "internalType": "address",
          "name": "owner",
          "type": "address"
        }
      ],
      "name": "numberMinted",
      "outputs": [
        {
          "internalType": "uint256",
          "name": "",
          "type": "uint256"
        }
      ],
      "stateMutability": "view",
      "type": "function",
      "constant": true
    },
    {
      "inputs": [
        {
          "internalType": "uint256",
          "name": "_amount",
          "type": "uint256"
        },
        {
          "internalType": "bytes",
          "name": "_signature",
          "type": "bytes"
        }
      ],
      "name": "mint",
      "outputs": [],
      "stateMutability": "payable",
      "type": "function",
      "payable": true
    },
    {
      "inputs": [
        {
          "internalType": "uint256",
          "name": "_amount",
          "type": "uint256"
        },
        {
          "internalType": "bytes",
          "name": "_signature",
          "type": "bytes"
        }
      ],
      "name": "presaleMint",
      "outputs": [],
      "stateMutability": "payable",
      "type": "function",
      "payable": true
    },
    {
      "inputs": [
        {
          "internalType": "address",
          "name": "_owner",
          "type": "address"
        },
        {
          "internalType": "uint256",
          "name": "_amount",
          "type": "uint256"
        }
      ],
      "name": "airdrop",
      "outputs": [],
      "stateMutability": "nonpayable",
      "type": "function"
    },
    {
      "inputs": [
        {
          "internalType": "string",
          "name": "_baseTokenURI",
          "type": "string"
        }
      ],
      "name": "setBaseURI",
      "outputs": [],
      "stateMutability": "nonpayable",
      "type": "function"
    },
    {
      "inputs": [
        {
          "internalType": "uint256",
          "name": "_newPrice",
          "type": "uint256"
        }
      ],
      "name": "setPrice",
      "outputs": [],
      "stateMutability": "nonpayable",
      "type": "function"
    },
    {
      "inputs": [
        {
          "internalType": "uint256",
          "name": "_newPrice",
          "type": "uint256"
        }
      ],
      "name": "setPresalePrice",
      "outputs": [],
      "stateMutability": "nonpayable",
      "type": "function"
    },
    {
      "inputs": [
        {
          "internalType": "uint256",
          "name": "_count",
          "type": "uint256"
        }
      ],
      "name": "setMaxTotalSupply",
      "outputs": [],
      "stateMutability": "nonpayable",
      "type": "function"
    },
    {
      "inputs": [],
      "name": "withdraw",
      "outputs": [],
      "stateMutability": "nonpayable",
      "type": "function"
    },
    {
      "inputs": [],
      "name": "pause",
      "outputs": [],
      "stateMutability": "nonpayable",
      "type": "function"
    },
    {
      "inputs": [],
      "name": "unpause",
      "outputs": [],
      "stateMutability": "nonpayable",
      "type": "function"
    },
    {
      "inputs": [],
      "name": "presale",
      "outputs": [],
      "stateMutability": "nonpayable",
      "type": "function"
    },
    {
      "inputs": [],
      "name": "unpresale",
      "outputs": [],
      "stateMutability": "nonpayable",
      "type": "function"
    },
    {
      "inputs": [],
      "name": "allowPublic",
      "outputs": [],
      "stateMutability": "nonpayable",
      "type": "function"
    },
    {
      "inputs": [],
      "name": "disallowPublic",
      "outputs": [],
      "stateMutability": "nonpayable",
      "type": "function"
    }
  ],
  "bytecode": "0x6080604052661ff973cafa8000600b55661550f7dca70000600c55610bb8600d55600e80546001600160a01b031990811673402351069cff2f0324a147ec0a138a1c2149159117909155600f805490911673e6fa2a32a99ad27cd21a9e740405dba7e0c6e3f31790553480156200007557600080fd5b506040516200335838038062003358833981016040819052620000989162000390565b60408051808201825260118152702430b8383c90283630b732ba1021b63ab160791b60208083019182528351808501909452600384526248504360e81b908401528151919291620000ec91600291620002d4565b50805162000102906003906020840190620002d4565b5050600160005550620001153362000143565b6008805460ff60a01b191690556001600955620001328162000195565b6200013c620001b8565b50620004a8565b600880546001600160a01b038381166001600160a01b0319831681179093556040519116919082907f8be0079c531659141344cd1fd0a4f28419497f9722a3daafe3b4186f6b6457e090600090a35050565b6200019f620001ce565b8051620001b490600a906020840190620002d4565b5050565b620001c2620001ce565b620001cc6200022e565b565b6008546001600160a01b03163314620001cc5760405162461bcd60e51b815260206004820181905260248201527f4f776e61626c653a2063616c6c6572206973206e6f7420746865206f776e657260448201526064015b60405180910390fd5b600854600160a81b900460ff16156200027b5760405162461bcd60e51b815260206004820152600e60248201526d141c995cd85b194818db1bdcd95960921b604482015260640162000225565b6008805460ff60a81b1916600160a81b1790557fb1412a7cd96bc4195d633c938189c320dcbeb2cff60c1b8bdd872678fb3514b4620002b73390565b6040516001600160a01b03909116815260200160405180910390a1565b828054620002e2906200046c565b90600052602060002090601f01602090048101928262000306576000855562000351565b82601f106200032157805160ff191683800117855562000351565b8280016001018555821562000351579182015b828111156200035157825182559160200191906001019062000334565b506200035f92915062000363565b5090565b5b808211156200035f576000815560010162000364565b634e487b7160e01b600052604160045260246000fd5b60006020808385031215620003a457600080fd5b82516001600160401b0380821115620003bc57600080fd5b818501915085601f830112620003d157600080fd5b815181811115620003e657620003e66200037a565b604051601f8201601f19908116603f011681019083821181831017156200041157620004116200037a565b8160405282815288868487010111156200042a57600080fd5b600093505b828410156200044e57848401860151818501870152928501926200042f565b82841115620004605760008684830101525b98975050505050505050565b600181811c908216806200048157607f821691505b602082108103620004a257634e487b7160e01b600052602260045260246000fd5b50919050565b612ea080620004b86000396000f3fe6080604052600436106102f15760003560e01c80638462151c1161018f578063c23dc68f116100e1578063db7fd4081161008a578063f2fde38b11610064578063f2fde38b1461081d578063fd24a8541461083d578063fdea8e0b1461085057600080fd5b8063db7fd408146107a1578063dc33e681146107b4578063e985e9c5146107d457600080fd5b8063d0f9cd93116100bb578063d0f9cd9314610762578063d547cfb714610777578063d89135cd1461078c57600080fd5b8063c23dc68f14610700578063c7a9fb921461072d578063c87b56dd1461074257600080fd5b806395d89b4111610143578063a22cb4651161011d578063a22cb465146106a7578063a2309ff8146106c7578063b88d4fde146106e057600080fd5b806395d89b411461065c57806399a2557a14610671578063a035b1fe1461069157600080fd5b80638ba4cc3c116101745780638ba4cc3c146105fe5780638da5cb5b1461061e57806391b7f5ed1461063c57600080fd5b80638462151c146105bc57806385493853146105e957600080fd5b80633f3e4c11116102485780635bbb2177116101fc57806370a08231116101d657806370a0823114610572578063715018a6146105925780638456cb59146105a757600080fd5b80635bbb2177146105065780635c975abb146105335780636352211e1461055257600080fd5b806342842e0e1161022d57806342842e0e146104a75780634cb2f9ea146104c757806355f804b3146104e657600080fd5b80633f3e4c11146104725780633f4ba83a1461049257600080fd5b806309c214df116102aa5780632ab4d052116102845780632ab4d052146104275780633549345e1461043d5780633ccfd60b1461045d57600080fd5b806309c214df146103cb57806318160ddd146103ea57806323b872dd1461040757600080fd5b806306fdde03116102db57806306fdde031461034f578063081812fc14610371578063095ea7b3146103a957600080fd5b80620e7fa8146102f657806301ffc9a71461031f575b600080fd5b34801561030257600080fd5b5061030c600c5481565b6040519081526020015b60405180910390f35b34801561032b57600080fd5b5061033f61033a36600461281a565b610865565b6040519015158152602001610316565b34801561035b57600080fd5b50610364610902565b604051610316919061288f565b34801561037d57600080fd5b5061039161038c3660046128a2565b610994565b6040516001600160a01b039091168152602001610316565b3480156103b557600080fd5b506103c96103c43660046128d7565b6109f1565b005b3480156103d757600080fd5b50600854600160b01b900460ff1661033f565b3480156103f657600080fd5b50600154600054036000190161030c565b34801561041357600080fd5b506103c9610422366004612901565b610ac2565b34801561043357600080fd5b5061030c600d5481565b34801561044957600080fd5b506103c96104583660046128a2565b610ca6565b34801561046957600080fd5b506103c9610cb3565b34801561047e57600080fd5b506103c961048d3660046128a2565b610da3565b34801561049e57600080fd5b506103c9610db0565b3480156104b357600080fd5b506103c96104c2366004612901565b610dc2565b3480156104d357600080fd5b50600854600160a81b900460ff1661033f565b3480156104f257600080fd5b506103c96105013660046129c9565b610de2565b34801561051257600080fd5b50610526610521366004612a12565b610e01565b6040516103169190612a87565b34801561053f57600080fd5b50600854600160a01b900460ff1661033f565b34801561055e57600080fd5b5061039161056d3660046128a2565b610ecd565b34801561057e57600080fd5b5061030c61058d366004612b04565b610ed8565b34801561059e57600080fd5b506103c9610f40565b3480156105b357600080fd5b506103c9610f52565b3480156105c857600080fd5b506105dc6105d7366004612b04565b610f62565b6040516103169190612b1f565b3480156105f557600080fd5b506103c9611066565b34801561060a57600080fd5b506103c96106193660046128d7565b611076565b34801561062a57600080fd5b506008546001600160a01b0316610391565b34801561064857600080fd5b506103c96106573660046128a2565b6110f1565b34801561066857600080fd5b506103646110fe565b34801561067d57600080fd5b506105dc61068c366004612b57565b61110d565b34801561069d57600080fd5b5061030c600b5481565b3480156106b357600080fd5b506103c96106c2366004612b8a565b6112ae565b3480156106d357600080fd5b506000546000190161030c565b3480156106ec57600080fd5b506103c96106fb366004612be6565b611361565b34801561070c57600080fd5b5061072061071b3660046128a2565b6113ab565b6040516103169190612c4e565b34801561073957600080fd5b506103c9611433565b34801561074e57600080fd5b5061036461075d3660046128a2565b61146e565b34801561076e57600080fd5b506103c961150a565b34801561078357600080fd5b5061036461153f565b34801561079857600080fd5b5061030c6115cd565b6103c96107af366004612c93565b6115d8565b3480156107c057600080fd5b5061030c6107cf366004612b04565b611876565b3480156107e057600080fd5b5061033f6107ef366004612cda565b6001600160a01b03918216600090815260076020908152604080832093909416825291909152205460ff1690565b34801561082957600080fd5b506103c9610838366004612b04565b6118a1565b6103c961084b366004612c93565b611931565b34801561085c57600080fd5b506103c9611b65565b60007f01ffc9a7000000000000000000000000000000000000000000000000000000006001600160e01b0319831614806108c857507f80ac58cd000000000000000000000000000000000000000000000000000000006001600160e01b03198316145b806108fc57507f5b5e139f000000000000000000000000000000000000000000000000000000006001600160e01b03198316145b92915050565b60606002805461091190612d0d565b80601f016020809104026020016040519081016040528092919081815260200182805461093d90612d0d565b801561098a5780601f1061095f5761010080835404028352916020019161098a565b820191906000526020600020905b81548152906001019060200180831161096d57829003601f168201915b5050505050905090565b600061099f82611b75565b6109d5576040517fcf4700e400000000000000000000000000000000000000000000000000000000815260040160405180910390fd5b506000908152600660205260409020546001600160a01b031690565b60006109fc82610ecd565b9050336001600160a01b03821614610a4e57610a1881336107ef565b610a4e576040517fcfb3b94200000000000000000000000000000000000000000000000000000000815260040160405180910390fd5b60008281526006602052604080822080547fffffffffffffffffffffffff0000000000000000000000000000000000000000166001600160a01b0387811691821790925591518593918516917f8c5be1e5ebec7d5bd14f71427d1e84f3dd0314c0f7b2291e5b200ac8c7c3b92591a4505050565b6000610acd82611baa565b9050836001600160a01b0316816001600160a01b031614610b1a576040517fa114810000000000000000000000000000000000000000000000000000000000815260040160405180910390fd5b60008281526006602052604090208054338082146001600160a01b03881690911417610b8057610b4a86336107ef565b610b80576040517f59c896be00000000000000000000000000000000000000000000000000000000815260040160405180910390fd5b6001600160a01b038516610bc0576040517fea553b3400000000000000000000000000000000000000000000000000000000815260040160405180910390fd5b8015610bcb57600082555b6001600160a01b038681166000908152600560205260408082208054600019019055918716808252919020805460010190554260a01b17600160e11b17600085815260046020526040812091909155600160e11b84169003610c5d57600184016000818152600460205260408120549003610c5b576000548114610c5b5760008181526004602052604090208490555b505b83856001600160a01b0316876001600160a01b03167fddf252ad1be2c89b69c2b068fc378daa952ba7f163c4a11628f55a4df523b3ef60405160405180910390a4505050505050565b610cae611c32565b600c55565b610cbb611c32565b600260095403610d125760405162461bcd60e51b815260206004820152601f60248201527f5265656e7472616e637947756172643a207265656e7472616e742063616c6c0060448201526064015b60405180910390fd5b60026009556000610d24606447612d5d565b600e549091506001600160a01b03166108fc610d4183600c612d7f565b6040518115909202916000818181858888f19350505050610d6157600080fd5b600f546001600160a01b03166108fc610d7b836058612d7f565b6040518115909202916000818181858888f19350505050610d9b57600080fd5b506001600955565b610dab611c32565b600d55565b610db8611c32565b610dc0611c8c565b565b610ddd83838360405180602001604052806000815250611361565b505050565b610dea611c32565b8051610dfd90600a90602084019061276b565b5050565b60608160008167ffffffffffffffff811115610e1f57610e1f61293d565b604051908082528060200260200182016040528015610e7157816020015b604080516080810182526000808252602080830182905292820181905260608201528252600019909201910181610e3d5790505b50905060005b828114610ec457610e9f868683818110610e9357610e93612d9e565b905060200201356113ab565b828281518110610eb157610eb1612d9e565b6020908102919091010152600101610e77565b50949350505050565b60006108fc82611baa565b60006001600160a01b038216610f1a576040517f8f4eb60400000000000000000000000000000000000000000000000000000000815260040160405180910390fd5b506001600160a01b031660009081526005602052604090205467ffffffffffffffff1690565b610f48611c32565b610dc06000611cfc565b610f5a611c32565b610dc0611d66565b60606000806000610f7285610ed8565b905060008167ffffffffffffffff811115610f8f57610f8f61293d565b604051908082528060200260200182016040528015610fb8578160200160208202803683370190505b5060408051608081018252600080825260208201819052918101829052606081019190915290915060015b83861461105a57610ff381611dc4565b915081604001516110525781516001600160a01b03161561101357815194505b876001600160a01b0316856001600160a01b031603611052578083878060010198508151811061104557611045612d9e565b6020026020010181815250505b600101610fe3565b50909695505050505050565b61106e611c32565b610dc0611e43565b61107e611c32565b600d548161108f6000546000190190565b6110999190612db4565b11156110e75760405162461bcd60e51b815260206004820152601660248201527f45786365656473206d6178696d756d20737570706c79000000000000000000006044820152606401610d09565b610dfd8282611ed9565b6110f9611c32565b600b55565b60606003805461091190612d0d565b6060818310611148576040517f32c1995a00000000000000000000000000000000000000000000000000000000815260040160405180910390fd5b60008061115460005490565b9050600185101561116457600194505b80841115611170578093505b600061117b87610ed8565b90508486101561119a5785850381811015611194578091505b5061119e565b5060005b60008167ffffffffffffffff8111156111b9576111b961293d565b6040519080825280602002602001820160405280156111e2578160200160208202803683370190505b509050816000036111f85793506112a792505050565b6000611203886113ab565b905060008160400151611214575080515b885b8881141580156112265750848714155b1561129b5761123481611dc4565b925082604001516112935782516001600160a01b03161561125457825191505b8a6001600160a01b0316826001600160a01b031603611293578084888060010199508151811061128657611286612d9e565b6020026020010181815250505b600101611216565b50505092835250909150505b9392505050565b336001600160a01b038316036112f0576040517fb06307db00000000000000000000000000000000000000000000000000000000815260040160405180910390fd5b3360008181526007602090815260408083206001600160a01b03871680855290835292819020805460ff191686151590811790915590519081529192917f17307eab39ab6107e8899845ad3d59bd9653f200f220920489ca2b5937696c31910160405180910390a35050565b905090565b61136c848484610ac2565b6001600160a01b0383163b156113a55761138884848484611ef3565b6113a5576040516368d2bf6b60e11b815260040160405180910390fd5b50505050565b604080516080810182526000808252602082018190529181018290526060810191909152604080516080810182526000808252602082018190529181018290526060810191909152600183108061140457506000548310155b1561140f5792915050565b61141883611dc4565b905080604001511561142a5792915050565b6112a783611fdf565b61143b611c32565b610dc0600880547fffffffffffffffffff00ffffffffffffffffffffffffffffffffffffffffffff16600160b01b179055565b606061147982611b75565b6114af576040517fa14c4b5000000000000000000000000000000000000000000000000000000000815260040160405180910390fd5b60006114b9612057565b905080516000036114d957604051806020016040528060008152506112a7565b806114e384612066565b6040516020016114f4929190612dcc565b6040516020818303038152906040529392505050565b611512611c32565b610dc0600880547fffffffffffffffffff00ffffffffffffffffffffffffffffffffffffffffffff169055565b600a805461154c90612d0d565b80601f016020809104026020016040519081016040528092919081815260200182805461157890612d0d565b80156115c55780601f1061159a576101008083540402835291602001916115c5565b820191906000526020600020905b8154815290600101906020018083116115a857829003601f168201915b505050505081565b600061135c60015490565b600854600160b01b900460ff1661161f5760405162461bcd60e51b815260206004820152600b60248201526a14d85b194818db1bdcd95960aa1b6044820152606401610d09565b61162761209e565b600061163333836120f8565b90506116476008546001600160a01b031690565b6001600160a01b0316816001600160a01b0316146116a75760405162461bcd60e51b815260206004820152601660248201527f4e6f7420617574686f72697a656420746f206d696e74000000000000000000006044820152606401610d09565b3360009081526005602052604090819020546003916116d29186911c67ffffffffffffffff16612db4565b111561172a5760405162461bcd60e51b815260206004820152602160248201527f43616e206f6e6c79206d696e74203320746f6b656e73206174206164647265736044820152607360f81b6064820152608401610d09565b600d548361173b6000546000190190565b6117459190612db4565b11156117935760405162461bcd60e51b815260206004820152601660248201527f45786365656473206d6178696d756d20737570706c79000000000000000000006044820152606401610d09565b336000908152600560205260408082205467ffffffffffffffff911c166002146117ff576117fa6001856117ea336001600160a01b03166000908152600560205260409081902054901c67ffffffffffffffff1690565b6117f49190612db4565b90612195565b611803565b6001805b915050801580611820575080600b5461181c9190612d7f565b3410155b61186c5760405162461bcd60e51b815260206004820152601f60248201527f45746865722076616c75652073656e74206973206e6f7420636f7272656374006044820152606401610d09565b6113a53385611ed9565b6001600160a01b0381166000908152600560205260408082205467ffffffffffffffff911c166108fc565b6118a9611c32565b6001600160a01b0381166119255760405162461bcd60e51b815260206004820152602660248201527f4f776e61626c653a206e6577206f776e657220697320746865207a65726f206160448201527f64647265737300000000000000000000000000000000000000000000000000006064820152608401610d09565b61192e81611cfc565b50565b600854600160a81b900460ff166119785760405162461bcd60e51b815260206004820152600b60248201526a14d85b194818db1bdcd95960aa1b6044820152606401610d09565b61198061209e565b600061198c33836120f8565b90506119a06008546001600160a01b031690565b6001600160a01b0316816001600160a01b031614611a005760405162461bcd60e51b815260206004820152601660248201527f4e6f7420617574686f72697a656420746f206d696e74000000000000000000006044820152606401610d09565b336000908152600560205260409081902054600491611a2b9186911c67ffffffffffffffff16612db4565b1115611a835760405162461bcd60e51b815260206004820152602160248201527f43616e206f6e6c79206d696e74203420746f6b656e73206174206164647265736044820152607360f81b6064820152608401610d09565b600d5483611a946000546000190190565b611a9e9190612db4565b1115611aec5760405162461bcd60e51b815260206004820152601660248201527f45786365656473206d6178696d756d20737570706c79000000000000000000006044820152606401610d09565b336000908152600560205260408082205467ffffffffffffffff911c16600314611b4857611b436002856117ea336001600160a01b03166000908152600560205260409081902054901c67ffffffffffffffff1690565b611b4c565b6001805b915050801580611820575080600c5461181c9190612d7f565b611b6d611c32565b610dc06121bb565b600081600111158015611b89575060005482105b80156108fc575050600090815260046020526040902054600160e01b161590565b60008180600111611c0057600054811015611c005760008181526004602052604081205490600160e01b82169003611bfe575b806000036112a7575060001901600081815260046020526040902054611bdd565b505b6040517fdf2d9b4200000000000000000000000000000000000000000000000000000000815260040160405180910390fd5b6008546001600160a01b03163314610dc05760405162461bcd60e51b815260206004820181905260248201527f4f776e61626c653a2063616c6c6572206973206e6f7420746865206f776e65726044820152606401610d09565b611c9461226b565b600880547fffffffffffffffffffffff00ffffffffffffffffffffffffffffffffffffffff1690557f5db9ee0a495bf2e6ff9c91a7834c1ba4fdd244a5e8aa4e537bd38aeae4b073aa335b6040516001600160a01b03909116815260200160405180910390a1565b600880546001600160a01b038381167fffffffffffffffffffffffff0000000000000000000000000000000000000000831681179093556040519116919082907f8be0079c531659141344cd1fd0a4f28419497f9722a3daafe3b4186f6b6457e090600090a35050565b611d6e61209e565b600880547fffffffffffffffffffffff00ffffffffffffffffffffffffffffffffffffffff16600160a01b1790557f62e78cea01bee320cd4e420270b5ea74000d11b0c9f74754ebdbfc544b05a258611cdf3390565b6040805160808101825260008082526020820181905291810182905260608101919091526000828152600460205260409020546108fc90604080516080810182526001600160a01b038316815260a083901c67ffffffffffffffff166020820152600160e01b831615159181019190915260e89190911c606082015290565b600854600160a81b900460ff16611e8a5760405162461bcd60e51b815260206004820152600b60248201526a14d85b194818db1bdcd95960aa1b6044820152606401610d09565b600880547fffffffffffffffffffff00ffffffffffffffffffffffffffffffffffffffffff1690557f9e209206b95275a497262e47a30901f0716b2d6d19618dd5e9b7b68237e7cb7133611cdf565b610dfd8282604051806020016040528060008152506122c4565b604051630a85bd0160e11b81526000906001600160a01b0385169063150b7a0290611f28903390899088908890600401612dfb565b6020604051808303816000875af1925050508015611f63575060408051601f3d908101601f19168201909252611f6091810190612e37565b60015b611fc1573d808015611f91576040519150601f19603f3d011682016040523d82523d6000602084013e611f96565b606091505b508051600003611fb9576040516368d2bf6b60e11b815260040160405180910390fd5b805181602001fd5b6001600160e01b031916630a85bd0160e11b1490505b949350505050565b6040805160808101825260008082526020820181905291810182905260608101919091526108fc61200f83611baa565b604080516080810182526001600160a01b038316815260a083901c67ffffffffffffffff166020820152600160e01b831615159181019190915260e89190911c606082015290565b6060600a805461091190612d0d565b604080516080019081905280825b600183039250600a81066030018353600a9004806120745750819003601f19909101908152919050565b600854600160a01b900460ff1615610dc05760405162461bcd60e51b815260206004820152601060248201527f5061757361626c653a20706175736564000000000000000000000000000000006044820152606401610d09565b60408051606084901b7fffffffffffffffffffffffffffffffffffffffff00000000000000000000000016602080830191909152825160148184030181526034830184528051908201207f19457468657265756d205369676e6564204d6573736167653a0a333200000000605484015260708084019190915283518084039091018152609090920190925280519101206000906112a79083612331565b600080838311156121ab575060009050806121b4565b50600190508183035b9250929050565b600854600160a81b900460ff16156122155760405162461bcd60e51b815260206004820152600e60248201527f50726573616c6520636c6f7365640000000000000000000000000000000000006044820152606401610d09565b600880547fffffffffffffffffffff00ffffffffffffffffffffffffffffffffffffffffff16600160a81b1790557fb1412a7cd96bc4195d633c938189c320dcbeb2cff60c1b8bdd872678fb3514b4611cdf3390565b600854600160a01b900460ff16610dc05760405162461bcd60e51b815260206004820152601460248201527f5061757361626c653a206e6f74207061757365640000000000000000000000006044820152606401610d09565b6122ce8383612355565b6001600160a01b0383163b15610ddd576000548281035b6122f86000868380600101945086611ef3565b612315576040516368d2bf6b60e11b815260040160405180910390fd5b8181106122e557816000541461232a57600080fd5b5050505050565b60008060006123408585612486565b9150915061234d816124c8565b509392505050565b6000805490829003612393576040517fb562e8dd00000000000000000000000000000000000000000000000000000000815260040160405180910390fd5b6001600160a01b03831660008181526005602090815260408083208054680100000000000000018802019055848352600490915281206001851460e11b4260a01b178317905582840190839083907fddf252ad1be2c89b69c2b068fc378daa952ba7f163c4a11628f55a4df523b3ef8180a4600183015b81811461244257808360007fddf252ad1be2c89b69c2b068fc378daa952ba7f163c4a11628f55a4df523b3ef600080a460010161240a565b508160000361247d576040517f2e07630000000000000000000000000000000000000000000000000000000000815260040160405180910390fd5b60005550505050565b60008082516041036124bc5760208301516040840151606085015160001a6124b08782858561267e565b945094505050506121b4565b506000905060026121b4565b60008160048111156124dc576124dc612e54565b036124e45750565b60018160048111156124f8576124f8612e54565b036125455760405162461bcd60e51b815260206004820152601860248201527f45434453413a20696e76616c6964207369676e617475726500000000000000006044820152606401610d09565b600281600481111561255957612559612e54565b036125a65760405162461bcd60e51b815260206004820152601f60248201527f45434453413a20696e76616c6964207369676e6174757265206c656e677468006044820152606401610d09565b60038160048111156125ba576125ba612e54565b036126125760405162461bcd60e51b815260206004820152602260248201527f45434453413a20696e76616c6964207369676e6174757265202773272076616c604482015261756560f01b6064820152608401610d09565b600481600481111561262657612626612e54565b0361192e5760405162461bcd60e51b815260206004820152602260248201527f45434453413a20696e76616c6964207369676e6174757265202776272076616c604482015261756560f01b6064820152608401610d09565b6000807f7fffffffffffffffffffffffffffffff5d576e7357a4501ddfe92f46681b20a08311156126b55750600090506003612762565b8460ff16601b141580156126cd57508460ff16601c14155b156126de5750600090506004612762565b6040805160008082526020820180845289905260ff881692820192909252606081018690526080810185905260019060a0016020604051602081039080840390855afa158015612732573d6000803e3d6000fd5b5050604051601f1901519150506001600160a01b03811661275b57600060019250925050612762565b9150600090505b94509492505050565b82805461277790612d0d565b90600052602060002090601f01602090048101928261279957600085556127df565b82601f106127b257805160ff19168380011785556127df565b828001600101855582156127df579182015b828111156127df5782518255916020019190600101906127c4565b506127eb9291506127ef565b5090565b5b808211156127eb57600081556001016127f0565b6001600160e01b03198116811461192e57600080fd5b60006020828403121561282c57600080fd5b81356112a781612804565b60005b8381101561285257818101518382015260200161283a565b838111156113a55750506000910152565b6000815180845261287b816020860160208601612837565b601f01601f19169290920160200192915050565b6020815260006112a76020830184612863565b6000602082840312156128b457600080fd5b5035919050565b80356001600160a01b03811681146128d257600080fd5b919050565b600080604083850312156128ea57600080fd5b6128f3836128bb565b946020939093013593505050565b60008060006060848603121561291657600080fd5b61291f846128bb565b925061292d602085016128bb565b9150604084013590509250925092565b634e487b7160e01b600052604160045260246000fd5b600067ffffffffffffffff8084111561296e5761296e61293d565b604051601f8501601f19908116603f011681019082821181831017156129965761299661293d565b816040528093508581528686860111156129af57600080fd5b858560208301376000602087830101525050509392505050565b6000602082840312156129db57600080fd5b813567ffffffffffffffff8111156129f257600080fd5b8201601f81018413612a0357600080fd5b611fd784823560208401612953565b60008060208385031215612a2557600080fd5b823567ffffffffffffffff80821115612a3d57600080fd5b818501915085601f830112612a5157600080fd5b813581811115612a6057600080fd5b8660208260051b8501011115612a7557600080fd5b60209290920196919550909350505050565b6020808252825182820181905260009190848201906040850190845b8181101561105a57612af18385516001600160a01b03815116825267ffffffffffffffff602082015116602083015260408101511515604083015262ffffff60608201511660608301525050565b9284019260809290920191600101612aa3565b600060208284031215612b1657600080fd5b6112a7826128bb565b6020808252825182820181905260009190848201906040850190845b8181101561105a57835183529284019291840191600101612b3b565b600080600060608486031215612b6c57600080fd5b612b75846128bb565b95602085013595506040909401359392505050565b60008060408385031215612b9d57600080fd5b612ba6836128bb565b915060208301358015158114612bbb57600080fd5b809150509250929050565b600082601f830112612bd757600080fd5b6112a783833560208501612953565b60008060008060808587031215612bfc57600080fd5b612c05856128bb565b9350612c13602086016128bb565b925060408501359150606085013567ffffffffffffffff811115612c3657600080fd5b612c4287828801612bc6565b91505092959194509250565b81516001600160a01b0316815260208083015167ffffffffffffffff169082015260408083015115159082015260608083015162ffffff1690820152608081016108fc565b60008060408385031215612ca657600080fd5b82359150602083013567ffffffffffffffff811115612cc457600080fd5b612cd085828601612bc6565b9150509250929050565b60008060408385031215612ced57600080fd5b612cf6836128bb565b9150612d04602084016128bb565b90509250929050565b600181811c90821680612d2157607f821691505b602082108103612d4157634e487b7160e01b600052602260045260246000fd5b50919050565b634e487b7160e01b600052601160045260246000fd5b600082612d7a57634e487b7160e01b600052601260045260246000fd5b500490565b6000816000190483118215151615612d9957612d99612d47565b500290565b634e487b7160e01b600052603260045260246000fd5b60008219821115612dc757612dc7612d47565b500190565b60008351612dde818460208801612837565b835190830190612df2818360208801612837565b01949350505050565b60006001600160a01b03808716835280861660208401525083604083015260806060830152612e2d6080830184612863565b9695505050505050565b600060208284031215612e4957600080fd5b81516112a781612804565b634e487b7160e01b600052602160045260246000fdfea2646970667358221220206c1c29ee94ab7b1d8151d67599ff432999566a5739837626723858ad4a300964736f6c634300080e0033",
  "immutableReferences": {},
  "source": "// SPDX-License-Identifier: MIT\npragma solidity ^0.8.9;\n\nimport \"erc721a/contracts/extensions/ERC721AQueryable.sol\";\nimport \"@openzeppelin/contracts/access/Ownable.sol\";\nimport \"@openzeppelin/contracts/security/Pausable.sol\";\nimport \"@openzeppelin/contracts/utils/math/SafeMath.sol\";\nimport \"@openzeppelin/contracts/utils/cryptography/ECDSA.sol\";\nimport \"@openzeppelin/contracts/security/ReentrancyGuard.sol\";\n\nimport \"./Presalable.sol\";\n\ncontract HappyPlanetClub is ERC721AQueryable, Ownable, Pausable, Presalable, ReentrancyGuard {\n  using SafeMath for uint;\n  using ECDSA for bytes32;\n\n  string public baseTokenURI;\n\n  uint256 public price = 0.009 ether;\n  uint256 public presalePrice = 0.006 ether;\n  uint256 public maxTotalSupply = 3000;\n\n  address t1 = 0x402351069CFF2F0324A147eC0a138a1C21491591;\n  address t2 = 0xe6Fa2a32A99ad27Cd21A9E740405DBA7e0C6e3f3;\n\n  constructor(string memory _baseTokenURI) ERC721A(\"Happy Planet Club\", \"HPC\")  {\n    setBaseURI(_baseTokenURI);\n    presale();\n  }\n\n  function totalMinted() public view returns (uint256) {\n    return _totalMinted();\n  }\n\n  function totalBurned() public view returns (uint256) {\n    return _totalBurned();\n  }\n\n  function numberMinted(address owner) public view returns (uint256) {\n    return _numberMinted(owner);\n  }\n\n  function mint(uint256 _amount, bytes memory _signature) public payable whenAllowedPublic whenNotPaused {\n    address signer = _recoverSigner(msg.sender, _signature);\n    \n    require(signer == owner(), \"Not authorized to mint\");\n    require(_numberMinted(msg.sender) + _amount <= 3, \"Can only mint 3 tokens at address\");\n    require(_totalMinted() + _amount <= maxTotalSupply, \"Exceeds maximum supply\");\n\n    (, uint256 _nonFreeAmount) = _numberMinted(msg.sender) == 2 \n                                 ? (true, 1) : (_numberMinted(msg.sender) + _amount).trySub(1);\n\n    require(_nonFreeAmount == 0 || msg.value >= price * _nonFreeAmount, \"Ether value sent is not correct\");\n\n    _safeMint(msg.sender, _amount);\n  }\n\n  function presaleMint(uint256 _amount, bytes memory _signature) public payable whenPresaled whenNotPaused {        \n    address signer = _recoverSigner(msg.sender, _signature);\n\n    require(signer == owner(), \"Not authorized to mint\");\n    require(_numberMinted(msg.sender) + _amount <= 4, \"Can only mint 4 tokens at address\");\n    require(_totalMinted() + _amount <= maxTotalSupply, \"Exceeds maximum supply\");\n\n    (, uint256 _nonFreeAmount) = _numberMinted(msg.sender) == 3 \n                                 ? (true, 1) : (_numberMinted(msg.sender) + _amount).trySub(2);\n\n    require(_nonFreeAmount == 0 || msg.value >= presalePrice * _nonFreeAmount, \"Ether value sent is not correct\");\n\n    _safeMint(msg.sender, _amount);\n  }\n\n  function airdrop(address _owner, uint256 _amount) public onlyOwner {\n    require(_totalMinted() + _amount <= maxTotalSupply, \"Exceeds maximum supply\");\n\n    _safeMint(_owner, _amount);\n  }\n\n  function _baseURI() internal view virtual override returns (string memory) {\n    return baseTokenURI;\n  }\n\n  function setBaseURI(string memory _baseTokenURI) public onlyOwner {\n    baseTokenURI = _baseTokenURI;\n  }\n\n  function setPrice(uint256 _newPrice) public onlyOwner{\n    price = _newPrice;\n  }\n\n  function setPresalePrice(uint256 _newPrice) public onlyOwner{\n    presalePrice = _newPrice;\n  }\n\n  function setMaxTotalSupply(uint256 _count) public onlyOwner{\n    maxTotalSupply = _count;\n  }\n\n  function withdraw() external onlyOwner nonReentrant {\n    uint256 _balance = address(this).balance / 100;\n\n    require(payable(t1).send(_balance * 12));\n    require(payable(t2).send(_balance * 88));\n  }\n\n  function pause() public onlyOwner {\n    _pause();\n  }\n\n  function unpause() public onlyOwner {\n    _unpause();\n  }\n\n  function presale() public onlyOwner {\n    _presale();\n  }\n\n  function unpresale() public onlyOwner {\n    _unpresale();\n  }\n\n  function allowPublic() public onlyOwner {\n    _allowPublic();\n  }\n\n  function disallowPublic() public onlyOwner {\n    _disallowPublic();\n  }\n\n  function _recoverSigner(address _wallet, bytes memory _signature) private pure returns (address){\n    return keccak256(abi.encodePacked(_wallet)).toEthSignedMessageHash().recover(_signature);\n  }\n\n  function _startTokenId() internal view virtual override returns (uint256) {\n    return 1;\n  }\n}",
  "sourcePath": "/Users/doss/Projects/happyplanetclub/packages/truffle/contracts/HappyPlanetClub.sol",
  "compiler": {
    "name": "solc",
    "version": "0.8.14+commit.80d49f37.Emscripten.clang"
  },
  "schemaVersion": "3.4.7",
  "updatedAt": "2022-08-27T13:12:10.101Z",
  "networkType": "ethereum",
  "devdoc": {
    "kind": "dev",
    "methods": {
      "approve(address,uint256)": {
        "details": "Gives permission to `to` to transfer `tokenId` token to another account. The approval is cleared when the token is transferred. Only a single account can be approved at a time, so approving the zero address clears previous approvals. Requirements: - The caller must own the token or be an approved operator. - `tokenId` must exist. Emits an {Approval} event."
      },
      "balanceOf(address)": {
        "details": "Returns the number of tokens in `owner`'s account."
      },
      "explicitOwnershipOf(uint256)": {
        "details": "Returns the `TokenOwnership` struct at `tokenId` without reverting. If the `tokenId` is out of bounds: - `addr = address(0)` - `startTimestamp = 0` - `burned = false` - `extraData = 0` If the `tokenId` is burned: - `addr = <Address of owner before token was burned>` - `startTimestamp = <Timestamp when token was burned>` - `burned = true` - `extraData = <Extra data when token was burned>` Otherwise: - `addr = <Address of owner>` - `startTimestamp = <Timestamp of start of ownership>` - `burned = false` - `extraData = <Extra data at start of ownership>`"
      },
      "explicitOwnershipsOf(uint256[])": {
        "details": "Returns an array of `TokenOwnership` structs at `tokenIds` in order. See {ERC721AQueryable-explicitOwnershipOf}"
      },
      "getApproved(uint256)": {
        "details": "Returns the account approved for `tokenId` token. Requirements: - `tokenId` must exist."
      },
      "isApprovedForAll(address,address)": {
        "details": "Returns if the `operator` is allowed to manage all of the assets of `owner`. See {setApprovalForAll}."
      },
      "name()": {
        "details": "Returns the token collection name."
      },
      "owner()": {
        "details": "Returns the address of the current owner."
      },
      "ownerOf(uint256)": {
        "details": "Returns the owner of the `tokenId` token. Requirements: - `tokenId` must exist."
      },
      "paused()": {
        "details": "Returns true if the contract is paused, and false otherwise."
      },
      "renounceOwnership()": {
        "details": "Leaves the contract without owner. It will not be possible to call `onlyOwner` functions anymore. Can only be called by the current owner. NOTE: Renouncing ownership will leave the contract without an owner, thereby removing any functionality that is only available to the owner."
      },
      "safeTransferFrom(address,address,uint256)": {
        "details": "Equivalent to `safeTransferFrom(from, to, tokenId, '')`."
      },
      "safeTransferFrom(address,address,uint256,bytes)": {
        "details": "Safely transfers `tokenId` token from `from` to `to`. Requirements: - `from` cannot be the zero address. - `to` cannot be the zero address. - `tokenId` token must exist and be owned by `from`. - If the caller is not `from`, it must be approved to move this token by either {approve} or {setApprovalForAll}. - If `to` refers to a smart contract, it must implement {IERC721Receiver-onERC721Received}, which is called upon a safe transfer. Emits a {Transfer} event."
      },
      "setApprovalForAll(address,bool)": {
        "details": "Approve or remove `operator` as an operator for the caller. Operators can call {transferFrom} or {safeTransferFrom} for any token owned by the caller. Requirements: - The `operator` cannot be the caller. Emits an {ApprovalForAll} event."
      },
      "supportsInterface(bytes4)": {
        "details": "Returns true if this contract implements the interface defined by `interfaceId`. See the corresponding [EIP section](https://eips.ethereum.org/EIPS/eip-165#how-interfaces-are-identified) to learn more about how these ids are created. This function call must use less than 30000 gas."
      },
      "symbol()": {
        "details": "Returns the token collection symbol."
      },
      "tokenURI(uint256)": {
        "details": "Returns the Uniform Resource Identifier (URI) for `tokenId` token."
      },
      "tokensOfOwner(address)": {
        "details": "Returns an array of token IDs owned by `owner`. This function scans the ownership mapping and is O(`totalSupply`) in complexity. It is meant to be called off-chain. See {ERC721AQueryable-tokensOfOwnerIn} for splitting the scan into multiple smaller scans if the collection is large enough to cause an out-of-gas error (10K collections should be fine)."
      },
      "tokensOfOwnerIn(address,uint256,uint256)": {
        "details": "Returns an array of token IDs owned by `owner`, in the range [`start`, `stop`) (i.e. `start <= tokenId < stop`). This function allows for tokens to be queried if the collection grows too big for a single call of {ERC721AQueryable-tokensOfOwner}. Requirements: - `start < stop`"
      },
      "totalSupply()": {
        "details": "Returns the total number of tokens in existence. Burned tokens will reduce the count. To get the total number of tokens minted, please see {_totalMinted}."
      },
      "transferFrom(address,address,uint256)": {
        "details": "Transfers `tokenId` from `from` to `to`. Requirements: - `from` cannot be the zero address. - `to` cannot be the zero address. - `tokenId` token must be owned by `from`. - If the caller is not `from`, it must be approved to move this token by either {approve} or {setApprovalForAll}. Emits a {Transfer} event."
      },
      "transferOwnership(address)": {
        "details": "Transfers ownership of the contract to a new account (`newOwner`). Can only be called by the current owner."
      }
    },
    "version": 1
  },
  "userdoc": {
    "errors": {
      "ApprovalCallerNotOwnerNorApproved()": [
        {
          "notice": "The caller must own the token or be an approved operator."
        }
      ],
      "ApprovalQueryForNonexistentToken()": [
        {
          "notice": "The token does not exist."
        }
      ],
      "ApproveToCaller()": [
        {
          "notice": "The caller cannot approve to their own address."
        }
      ],
      "BalanceQueryForZeroAddress()": [
        {
          "notice": "Cannot query the balance for the zero address."
        }
      ],
      "InvalidQueryRange()": [
        {
          "notice": "Invalid query range (`start` >= `stop`)."
        }
      ],
      "MintERC2309QuantityExceedsLimit()": [
        {
          "notice": "The `quantity` minted with ERC2309 exceeds the safety limit."
        }
      ],
      "MintToZeroAddress()": [
        {
          "notice": "Cannot mint to the zero address."
        }
      ],
      "MintZeroQuantity()": [
        {
          "notice": "The quantity of tokens minted must be more than zero."
        }
      ],
      "OwnerQueryForNonexistentToken()": [
        {
          "notice": "The token does not exist."
        }
      ],
      "OwnershipNotInitializedForExtraData()": [
        {
          "notice": "The `extraData` cannot be set on an unintialized ownership slot."
        }
      ],
      "TransferCallerNotOwnerNorApproved()": [
        {
          "notice": "The caller must own the token or be an approved operator."
        }
      ],
      "TransferFromIncorrectOwner()": [
        {
          "notice": "The token must be owned by `from`."
        }
      ],
      "TransferToNonERC721ReceiverImplementer()": [
        {
          "notice": "Cannot safely transfer to a contract that does not implement the ERC721Receiver interface."
        }
      ],
      "TransferToZeroAddress()": [
        {
          "notice": "Cannot transfer to the zero address."
        }
      ],
      "URIQueryForNonexistentToken()": [
        {
          "notice": "The token does not exist."
        }
      ]
    },
    "kind": "user",
    "methods": {},
    "version": 1
  }
}