{
  "contractName": "HappyPlanetClub",
  "abi": [
    {
      "inputs": [
        {
          "internalType": "string",
          "name": "_baseTokenURI",
          "type": "string"
        }
      ],
      "stateMutability": "nonpayable",
      "type": "constructor"
    },
    {
      "inputs": [],
      "name": "ApprovalCallerNotOwnerNorApproved",
      "type": "error"
    },
    {
      "inputs": [],
      "name": "ApprovalQueryForNonexistentToken",
      "type": "error"
    },
    {
      "inputs": [],
      "name": "ApproveToCaller",
      "type": "error"
    },
    {
      "inputs": [],
      "name": "BalanceQueryForZeroAddress",
      "type": "error"
    },
    {
      "inputs": [],
      "name": "InvalidQueryRange",
      "type": "error"
    },
    {
      "inputs": [],
      "name": "MintERC2309QuantityExceedsLimit",
      "type": "error"
    },
    {
      "inputs": [],
      "name": "MintToZeroAddress",
      "type": "error"
    },
    {
      "inputs": [],
      "name": "MintZeroQuantity",
      "type": "error"
    },
    {
      "inputs": [],
      "name": "OwnerQueryForNonexistentToken",
      "type": "error"
    },
    {
      "inputs": [],
      "name": "OwnershipNotInitializedForExtraData",
      "type": "error"
    },
    {
      "inputs": [],
      "name": "TransferCallerNotOwnerNorApproved",
      "type": "error"
    },
    {
      "inputs": [],
      "name": "TransferFromIncorrectOwner",
      "type": "error"
    },
    {
      "inputs": [],
      "name": "TransferToNonERC721ReceiverImplementer",
      "type": "error"
    },
    {
      "inputs": [],
      "name": "TransferToZeroAddress",
      "type": "error"
    },
    {
      "inputs": [],
      "name": "URIQueryForNonexistentToken",
      "type": "error"
    },
    {
      "anonymous": false,
      "inputs": [
        {
          "indexed": true,
          "internalType": "address",
          "name": "owner",
          "type": "address"
        },
        {
          "indexed": true,
          "internalType": "address",
          "name": "approved",
          "type": "address"
        },
        {
          "indexed": true,
          "internalType": "uint256",
          "name": "tokenId",
          "type": "uint256"
        }
      ],
      "name": "Approval",
      "type": "event"
    },
    {
      "anonymous": false,
      "inputs": [
        {
          "indexed": true,
          "internalType": "address",
          "name": "owner",
          "type": "address"
        },
        {
          "indexed": true,
          "internalType": "address",
          "name": "operator",
          "type": "address"
        },
        {
          "indexed": false,
          "internalType": "bool",
          "name": "approved",
          "type": "bool"
        }
      ],
      "name": "ApprovalForAll",
      "type": "event"
    },
    {
      "anonymous": false,
      "inputs": [
        {
          "indexed": true,
          "internalType": "uint256",
          "name": "fromTokenId",
          "type": "uint256"
        },
        {
          "indexed": false,
          "internalType": "uint256",
          "name": "toTokenId",
          "type": "uint256"
        },
        {
          "indexed": true,
          "internalType": "address",
          "name": "from",
          "type": "address"
        },
        {
          "indexed": true,
          "internalType": "address",
          "name": "to",
          "type": "address"
        }
      ],
      "name": "ConsecutiveTransfer",
      "type": "event"
    },
    {
      "anonymous": false,
      "inputs": [
        {
          "indexed": true,
          "internalType": "address",
          "name": "previousOwner",
          "type": "address"
        },
        {
          "indexed": true,
          "internalType": "address",
          "name": "newOwner",
          "type": "address"
        }
      ],
      "name": "OwnershipTransferred",
      "type": "event"
    },
    {
      "anonymous": false,
      "inputs": [
        {
          "indexed": false,
          "internalType": "address",
          "name": "account",
          "type": "address"
        }
      ],
      "name": "Paused",
      "type": "event"
    },
    {
      "anonymous": false,
      "inputs": [
        {
          "indexed": false,
          "internalType": "address",
          "name": "account",
          "type": "address"
        }
      ],
      "name": "Presaled",
      "type": "event"
    },
    {
      "anonymous": false,
      "inputs": [
        {
          "indexed": true,
          "internalType": "address",
          "name": "from",
          "type": "address"
        },
        {
          "indexed": true,
          "internalType": "address",
          "name": "to",
          "type": "address"
        },
        {
          "indexed": true,
          "internalType": "uint256",
          "name": "tokenId",
          "type": "uint256"
        }
      ],
      "name": "Transfer",
      "type": "event"
    },
    {
      "anonymous": false,
      "inputs": [
        {
          "indexed": false,
          "internalType": "address",
          "name": "account",
          "type": "address"
        }
      ],
      "name": "Unpaused",
      "type": "event"
    },
    {
      "anonymous": false,
      "inputs": [
        {
          "indexed": false,
          "internalType": "address",
          "name": "account",
          "type": "address"
        }
      ],
      "name": "Unpresaled",
      "type": "event"
    },
    {
      "inputs": [],
      "name": "allowedPublic",
      "outputs": [
        {
          "internalType": "bool",
          "name": "",
          "type": "bool"
        }
      ],
      "stateMutability": "view",
      "type": "function"
    },
    {
      "inputs": [
        {
          "internalType": "address",
          "name": "to",
          "type": "address"
        },
        {
          "internalType": "uint256",
          "name": "tokenId",
          "type": "uint256"
        }
      ],
      "name": "approve",
      "outputs": [],
      "stateMutability": "nonpayable",
      "type": "function"
    },
    {
      "inputs": [
        {
          "internalType": "address",
          "name": "owner",
          "type": "address"
        }
      ],
      "name": "balanceOf",
      "outputs": [
        {
          "internalType": "uint256",
          "name": "",
          "type": "uint256"
        }
      ],
      "stateMutability": "view",
      "type": "function"
    },
    {
      "inputs": [],
      "name": "baseTokenURI",
      "outputs": [
        {
          "internalType": "string",
          "name": "",
          "type": "string"
        }
      ],
      "stateMutability": "view",
      "type": "function"
    },
    {
      "inputs": [
        {
          "internalType": "uint256",
          "name": "tokenId",
          "type": "uint256"
        }
      ],
      "name": "explicitOwnershipOf",
      "outputs": [
        {
          "components": [
            {
              "internalType": "address",
              "name": "addr",
              "type": "address"
            },
            {
              "internalType": "uint64",
              "name": "startTimestamp",
              "type": "uint64"
            },
            {
              "internalType": "bool",
              "name": "burned",
              "type": "bool"
            },
            {
              "internalType": "uint24",
              "name": "extraData",
              "type": "uint24"
            }
          ],
          "internalType": "struct IERC721A.TokenOwnership",
          "name": "",
          "type": "tuple"
        }
      ],
      "stateMutability": "view",
      "type": "function"
    },
    {
      "inputs": [
        {
          "internalType": "uint256[]",
          "name": "tokenIds",
          "type": "uint256[]"
        }
      ],
      "name": "explicitOwnershipsOf",
      "outputs": [
        {
          "components": [
            {
              "internalType": "address",
              "name": "addr",
              "type": "address"
            },
            {
              "internalType": "uint64",
              "name": "startTimestamp",
              "type": "uint64"
            },
            {
              "internalType": "bool",
              "name": "burned",
              "type": "bool"
            },
            {
              "internalType": "uint24",
              "name": "extraData",
              "type": "uint24"
            }
          ],
          "internalType": "struct IERC721A.TokenOwnership[]",
          "name": "",
          "type": "tuple[]"
        }
      ],
      "stateMutability": "view",
      "type": "function"
    },
    {
      "inputs": [
        {
          "internalType": "uint256",
          "name": "tokenId",
          "type": "uint256"
        }
      ],
      "name": "getApproved",
      "outputs": [
        {
          "internalType": "address",
          "name": "",
          "type": "address"
        }
      ],
      "stateMutability": "view",
      "type": "function"
    },
    {
      "inputs": [
        {
          "internalType": "address",
          "name": "owner",
          "type": "address"
        },
        {
          "internalType": "address",
          "name": "operator",
          "type": "address"
        }
      ],
      "name": "isApprovedForAll",
      "outputs": [
        {
          "internalType": "bool",
          "name": "",
          "type": "bool"
        }
      ],
      "stateMutability": "view",
      "type": "function"
    },
    {
      "inputs": [],
      "name": "maxTotalSupply",
      "outputs": [
        {
          "internalType": "uint256",
          "name": "",
          "type": "uint256"
        }
      ],
      "stateMutability": "view",
      "type": "function"
    },
    {
      "inputs": [],
      "name": "name",
      "outputs": [
        {
          "internalType": "string",
          "name": "",
          "type": "string"
        }
      ],
      "stateMutability": "view",
      "type": "function"
    },
    {
      "inputs": [],
      "name": "owner",
      "outputs": [
        {
          "internalType": "address",
          "name": "",
          "type": "address"
        }
      ],
      "stateMutability": "view",
      "type": "function"
    },
    {
      "inputs": [
        {
          "internalType": "uint256",
          "name": "tokenId",
          "type": "uint256"
        }
      ],
      "name": "ownerOf",
      "outputs": [
        {
          "internalType": "address",
          "name": "",
          "type": "address"
        }
      ],
      "stateMutability": "view",
      "type": "function"
    },
    {
      "inputs": [],
      "name": "paused",
      "outputs": [
        {
          "internalType": "bool",
          "name": "",
          "type": "bool"
        }
      ],
      "stateMutability": "view",
      "type": "function"
    },
    {
      "inputs": [],
      "name": "presalePrice",
      "outputs": [
        {
          "internalType": "uint256",
          "name": "",
          "type": "uint256"
        }
      ],
      "stateMutability": "view",
      "type": "function"
    },
    {
      "inputs": [],
      "name": "presaled",
      "outputs": [
        {
          "internalType": "bool",
          "name": "",
          "type": "bool"
        }
      ],
      "stateMutability": "view",
      "type": "function"
    },
    {
      "inputs": [],
      "name": "price",
      "outputs": [
        {
          "internalType": "uint256",
          "name": "",
          "type": "uint256"
        }
      ],
      "stateMutability": "view",
      "type": "function"
    },
    {
      "inputs": [],
      "name": "renounceOwnership",
      "outputs": [],
      "stateMutability": "nonpayable",
      "type": "function"
    },
    {
      "inputs": [
        {
          "internalType": "address",
          "name": "from",
          "type": "address"
        },
        {
          "internalType": "address",
          "name": "to",
          "type": "address"
        },
        {
          "internalType": "uint256",
          "name": "tokenId",
          "type": "uint256"
        }
      ],
      "name": "safeTransferFrom",
      "outputs": [],
      "stateMutability": "nonpayable",
      "type": "function"
    },
    {
      "inputs": [
        {
          "internalType": "address",
          "name": "from",
          "type": "address"
        },
        {
          "internalType": "address",
          "name": "to",
          "type": "address"
        },
        {
          "internalType": "uint256",
          "name": "tokenId",
          "type": "uint256"
        },
        {
          "internalType": "bytes",
          "name": "_data",
          "type": "bytes"
        }
      ],
      "name": "safeTransferFrom",
      "outputs": [],
      "stateMutability": "nonpayable",
      "type": "function"
    },
    {
      "inputs": [
        {
          "internalType": "address",
          "name": "operator",
          "type": "address"
        },
        {
          "internalType": "bool",
          "name": "approved",
          "type": "bool"
        }
      ],
      "name": "setApprovalForAll",
      "outputs": [],
      "stateMutability": "nonpayable",
      "type": "function"
    },
    {
      "inputs": [
        {
          "internalType": "bytes4",
          "name": "interfaceId",
          "type": "bytes4"
        }
      ],
      "name": "supportsInterface",
      "outputs": [
        {
          "internalType": "bool",
          "name": "",
          "type": "bool"
        }
      ],
      "stateMutability": "view",
      "type": "function"
    },
    {
      "inputs": [],
      "name": "symbol",
      "outputs": [
        {
          "internalType": "string",
          "name": "",
          "type": "string"
        }
      ],
      "stateMutability": "view",
      "type": "function"
    },
    {
      "inputs": [
        {
          "internalType": "address",
          "name": "",
          "type": "address"
        }
      ],
      "name": "tokenOwnersCounter",
      "outputs": [
        {
          "internalType": "uint256",
          "name": "",
          "type": "uint256"
        }
      ],
      "stateMutability": "view",
      "type": "function"
    },
    {
      "inputs": [
        {
          "internalType": "uint256",
          "name": "tokenId",
          "type": "uint256"
        }
      ],
      "name": "tokenURI",
      "outputs": [
        {
          "internalType": "string",
          "name": "",
          "type": "string"
        }
      ],
      "stateMutability": "view",
      "type": "function"
    },
    {
      "inputs": [
        {
          "internalType": "address",
          "name": "owner",
          "type": "address"
        }
      ],
      "name": "tokensOfOwner",
      "outputs": [
        {
          "internalType": "uint256[]",
          "name": "",
          "type": "uint256[]"
        }
      ],
      "stateMutability": "view",
      "type": "function"
    },
    {
      "inputs": [
        {
          "internalType": "address",
          "name": "owner",
          "type": "address"
        },
        {
          "internalType": "uint256",
          "name": "start",
          "type": "uint256"
        },
        {
          "internalType": "uint256",
          "name": "stop",
          "type": "uint256"
        }
      ],
      "name": "tokensOfOwnerIn",
      "outputs": [
        {
          "internalType": "uint256[]",
          "name": "",
          "type": "uint256[]"
        }
      ],
      "stateMutability": "view",
      "type": "function"
    },
    {
      "inputs": [],
      "name": "totalSupply",
      "outputs": [
        {
          "internalType": "uint256",
          "name": "",
          "type": "uint256"
        }
      ],
      "stateMutability": "view",
      "type": "function"
    },
    {
      "inputs": [
        {
          "internalType": "address",
          "name": "from",
          "type": "address"
        },
        {
          "internalType": "address",
          "name": "to",
          "type": "address"
        },
        {
          "internalType": "uint256",
          "name": "tokenId",
          "type": "uint256"
        }
      ],
      "name": "transferFrom",
      "outputs": [],
      "stateMutability": "nonpayable",
      "type": "function"
    },
    {
      "inputs": [
        {
          "internalType": "address",
          "name": "newOwner",
          "type": "address"
        }
      ],
      "name": "transferOwnership",
      "outputs": [],
      "stateMutability": "nonpayable",
      "type": "function"
    },
    {
      "inputs": [],
      "name": "totalMinted",
      "outputs": [
        {
          "internalType": "uint256",
          "name": "",
          "type": "uint256"
        }
      ],
      "stateMutability": "view",
      "type": "function"
    },
    {
      "inputs": [],
      "name": "totalBurned",
      "outputs": [
        {
          "internalType": "uint256",
          "name": "",
          "type": "uint256"
        }
      ],
      "stateMutability": "view",
      "type": "function"
    },
    {
      "inputs": [
        {
          "internalType": "address",
          "name": "owner",
          "type": "address"
        }
      ],
      "name": "numberMinted",
      "outputs": [
        {
          "internalType": "uint256",
          "name": "",
          "type": "uint256"
        }
      ],
      "stateMutability": "view",
      "type": "function"
    },
    {
      "inputs": [
        {
          "internalType": "uint256",
          "name": "_amount",
          "type": "uint256"
        },
        {
          "internalType": "bytes",
          "name": "_signature",
          "type": "bytes"
        }
      ],
      "name": "mint",
      "outputs": [],
      "stateMutability": "payable",
      "type": "function"
    },
    {
      "inputs": [
        {
          "internalType": "uint256",
          "name": "_amount",
          "type": "uint256"
        },
        {
          "internalType": "bytes",
          "name": "_signature",
          "type": "bytes"
        }
      ],
      "name": "presaleMint",
      "outputs": [],
      "stateMutability": "payable",
      "type": "function"
    },
    {
      "inputs": [
        {
          "internalType": "address",
          "name": "_owner",
          "type": "address"
        },
        {
          "internalType": "uint256",
          "name": "_amount",
          "type": "uint256"
        }
      ],
      "name": "airdrop",
      "outputs": [],
      "stateMutability": "nonpayable",
      "type": "function"
    },
    {
      "inputs": [
        {
          "internalType": "string",
          "name": "_baseTokenURI",
          "type": "string"
        }
      ],
      "name": "setBaseURI",
      "outputs": [],
      "stateMutability": "nonpayable",
      "type": "function"
    },
    {
      "inputs": [
        {
          "internalType": "uint256",
          "name": "_newPrice",
          "type": "uint256"
        }
      ],
      "name": "setPrice",
      "outputs": [],
      "stateMutability": "nonpayable",
      "type": "function"
    },
    {
      "inputs": [
        {
          "internalType": "uint256",
          "name": "_newPrice",
          "type": "uint256"
        }
      ],
      "name": "setPresalePrice",
      "outputs": [],
      "stateMutability": "nonpayable",
      "type": "function"
    },
    {
      "inputs": [
        {
          "internalType": "uint256",
          "name": "_count",
          "type": "uint256"
        }
      ],
      "name": "setMaxTotalSupply",
      "outputs": [],
      "stateMutability": "nonpayable",
      "type": "function"
    },
    {
      "inputs": [],
      "name": "withdraw",
      "outputs": [],
      "stateMutability": "nonpayable",
      "type": "function"
    },
    {
      "inputs": [],
      "name": "pause",
      "outputs": [],
      "stateMutability": "nonpayable",
      "type": "function"
    },
    {
      "inputs": [],
      "name": "unpause",
      "outputs": [],
      "stateMutability": "nonpayable",
      "type": "function"
    },
    {
      "inputs": [],
      "name": "presale",
      "outputs": [],
      "stateMutability": "nonpayable",
      "type": "function"
    },
    {
      "inputs": [],
      "name": "unpresale",
      "outputs": [],
      "stateMutability": "nonpayable",
      "type": "function"
    },
    {
      "inputs": [],
      "name": "allowPublic",
      "outputs": [],
      "stateMutability": "nonpayable",
      "type": "function"
    },
    {
      "inputs": [],
      "name": "disallowPublic",
      "outputs": [],
      "stateMutability": "nonpayable",
      "type": "function"
    }
  ],
  "bytecode": "0x6080604052661ff973cafa8000600b55661550f7dca70000600c55610bb8600d55600f80546001600160a01b031990811673402351069cff2f0324a147ec0a138a1c21491591179091556010805490911673e6fa2a32a99ad27cd21a9e740405dba7e0c6e3f31790553480156200007557600080fd5b506040516200335a3803806200335a833981016040819052620000989162000390565b60408051808201825260118152702430b8383c90283630b732ba1021b63ab160791b60208083019182528351808501909452600384526248504360e81b908401528151919291620000ec91600291620002d4565b50805162000102906003906020840190620002d4565b5050600160005550620001153362000143565b6008805460ff60a01b191690556001600955620001328162000195565b6200013c620001b8565b50620004a8565b600880546001600160a01b038381166001600160a01b0319831681179093556040519116919082907f8be0079c531659141344cd1fd0a4f28419497f9722a3daafe3b4186f6b6457e090600090a35050565b6200019f620001ce565b8051620001b490600a906020840190620002d4565b5050565b620001c2620001ce565b620001cc6200022e565b565b6008546001600160a01b03163314620001cc5760405162461bcd60e51b815260206004820181905260248201527f4f776e61626c653a2063616c6c6572206973206e6f7420746865206f776e657260448201526064015b60405180910390fd5b600854600160a81b900460ff16156200027b5760405162461bcd60e51b815260206004820152600e60248201526d141c995cd85b194818db1bdcd95960921b604482015260640162000225565b6008805460ff60a81b1916600160a81b1790557fb1412a7cd96bc4195d633c938189c320dcbeb2cff60c1b8bdd872678fb3514b4620002b73390565b6040516001600160a01b03909116815260200160405180910390a1565b828054620002e2906200046c565b90600052602060002090601f01602090048101928262000306576000855562000351565b82601f106200032157805160ff191683800117855562000351565b8280016001018555821562000351579182015b828111156200035157825182559160200191906001019062000334565b506200035f92915062000363565b5090565b5b808211156200035f576000815560010162000364565b634e487b7160e01b600052604160045260246000fd5b60006020808385031215620003a457600080fd5b82516001600160401b0380821115620003bc57600080fd5b818501915085601f830112620003d157600080fd5b815181811115620003e657620003e66200037a565b604051601f8201601f19908116603f011681019083821181831017156200041157620004116200037a565b8160405282815288868487010111156200042a57600080fd5b600093505b828410156200044e57848401860151818501870152928501926200042f565b82841115620004605760008684830101525b98975050505050505050565b600181811c908216806200048157607f821691505b602082108103620004a257634e487b7160e01b600052602260045260246000fd5b50919050565b612ea280620004b86000396000f3fe6080604052600436106102fc5760003560e01c80638462151c1161018f578063c23dc68f116100e1578063db7fd4081161008a578063f2fde38b11610064578063f2fde38b14610855578063fd24a85414610875578063fdea8e0b1461088857600080fd5b8063db7fd408146107d9578063dc33e681146107ec578063e985e9c51461080c57600080fd5b8063d0f9cd93116100bb578063d0f9cd931461079a578063d547cfb7146107af578063d89135cd146107c457600080fd5b8063c23dc68f14610738578063c7a9fb9214610765578063c87b56dd1461077a57600080fd5b806395d89b4111610143578063a22cb4651161011d578063a22cb465146106df578063a2309ff8146106ff578063b88d4fde1461071857600080fd5b806395d89b411461069457806399a2557a146106a9578063a035b1fe146106c957600080fd5b80638ba4cc3c116101745780638ba4cc3c146106365780638da5cb5b1461065657806391b7f5ed1461067457600080fd5b80638462151c146105f4578063854938531461062157600080fd5b80633ccfd60b116102535780635bbb2177116101fc57806370a08231116101d657806370a08231146105aa578063715018a6146105ca5780638456cb59146105df57600080fd5b80635bbb21771461053e5780635c975abb1461056b5780636352211e1461058a57600080fd5b806342842e0e1161022d57806342842e0e146104df5780634cb2f9ea146104ff57806355f804b31461051e57600080fd5b80633ccfd60b146104955780633f3e4c11146104aa5780633f4ba83a146104ca57600080fd5b806309c214df116102b5578063248142351161028f57806324814235146104325780632ab4d0521461045f5780633549345e1461047557600080fd5b806309c214df146103d657806318160ddd146103f557806323b872dd1461041257600080fd5b806306fdde03116102e657806306fdde031461035a578063081812fc1461037c578063095ea7b3146103b457600080fd5b80620e7fa81461030157806301ffc9a71461032a575b600080fd5b34801561030d57600080fd5b50610317600c5481565b6040519081526020015b60405180910390f35b34801561033657600080fd5b5061034a61034536600461281c565b61089d565b6040519015158152602001610321565b34801561036657600080fd5b5061036f61093a565b6040516103219190612891565b34801561038857600080fd5b5061039c6103973660046128a4565b6109cc565b6040516001600160a01b039091168152602001610321565b3480156103c057600080fd5b506103d46103cf3660046128d9565b610a29565b005b3480156103e257600080fd5b50600854600160b01b900460ff1661034a565b34801561040157600080fd5b506001546000540360001901610317565b34801561041e57600080fd5b506103d461042d366004612903565b610afa565b34801561043e57600080fd5b5061031761044d36600461293f565b600e6020526000908152604090205481565b34801561046b57600080fd5b50610317600d5481565b34801561048157600080fd5b506103d46104903660046128a4565b610cde565b3480156104a157600080fd5b506103d4610ceb565b3480156104b657600080fd5b506103d46104c53660046128a4565b610ddb565b3480156104d657600080fd5b506103d4610de8565b3480156104eb57600080fd5b506103d46104fa366004612903565b610dfa565b34801561050b57600080fd5b50600854600160a81b900460ff1661034a565b34801561052a57600080fd5b506103d46105393660046129e6565b610e1a565b34801561054a57600080fd5b5061055e610559366004612a2f565b610e39565b6040516103219190612aa4565b34801561057757600080fd5b50600854600160a01b900460ff1661034a565b34801561059657600080fd5b5061039c6105a53660046128a4565b610f05565b3480156105b657600080fd5b506103176105c536600461293f565b610f10565b3480156105d657600080fd5b506103d4610f78565b3480156105eb57600080fd5b506103d4610f8a565b34801561060057600080fd5b5061061461060f36600461293f565b610f9a565b6040516103219190612b21565b34801561062d57600080fd5b506103d461109e565b34801561064257600080fd5b506103d46106513660046128d9565b6110ae565b34801561066257600080fd5b506008546001600160a01b031661039c565b34801561068057600080fd5b506103d461068f3660046128a4565b611129565b3480156106a057600080fd5b5061036f611136565b3480156106b557600080fd5b506106146106c4366004612b59565b611145565b3480156106d557600080fd5b50610317600b5481565b3480156106eb57600080fd5b506103d46106fa366004612b8c565b6112e6565b34801561070b57600080fd5b5060005460001901610317565b34801561072457600080fd5b506103d4610733366004612be8565b611399565b34801561074457600080fd5b506107586107533660046128a4565b6113e3565b6040516103219190612c50565b34801561077157600080fd5b506103d461146b565b34801561078657600080fd5b5061036f6107953660046128a4565b6114a6565b3480156107a657600080fd5b506103d4611542565b3480156107bb57600080fd5b5061036f611577565b3480156107d057600080fd5b50610317611605565b6103d46107e7366004612c95565b611610565b3480156107f857600080fd5b5061031761080736600461293f565b6118a3565b34801561081857600080fd5b5061034a610827366004612cdc565b6001600160a01b03918216600090815260076020908152604080832093909416825291909152205460ff1690565b34801561086157600080fd5b506103d461087036600461293f565b6118ce565b6103d4610883366004612c95565b61195e565b34801561089457600080fd5b506103d4611b67565b60007f01ffc9a7000000000000000000000000000000000000000000000000000000006001600160e01b03198316148061090057507f80ac58cd000000000000000000000000000000000000000000000000000000006001600160e01b03198316145b8061093457507f5b5e139f000000000000000000000000000000000000000000000000000000006001600160e01b03198316145b92915050565b60606002805461094990612d0f565b80601f016020809104026020016040519081016040528092919081815260200182805461097590612d0f565b80156109c25780601f10610997576101008083540402835291602001916109c2565b820191906000526020600020905b8154815290600101906020018083116109a557829003601f168201915b5050505050905090565b60006109d782611b77565b610a0d576040517fcf4700e400000000000000000000000000000000000000000000000000000000815260040160405180910390fd5b506000908152600660205260409020546001600160a01b031690565b6000610a3482610f05565b9050336001600160a01b03821614610a8657610a508133610827565b610a86576040517fcfb3b94200000000000000000000000000000000000000000000000000000000815260040160405180910390fd5b60008281526006602052604080822080547fffffffffffffffffffffffff0000000000000000000000000000000000000000166001600160a01b0387811691821790925591518593918516917f8c5be1e5ebec7d5bd14f71427d1e84f3dd0314c0f7b2291e5b200ac8c7c3b92591a4505050565b6000610b0582611bac565b9050836001600160a01b0316816001600160a01b031614610b52576040517fa114810000000000000000000000000000000000000000000000000000000000815260040160405180910390fd5b60008281526006602052604090208054338082146001600160a01b03881690911417610bb857610b828633610827565b610bb8576040517f59c896be00000000000000000000000000000000000000000000000000000000815260040160405180910390fd5b6001600160a01b038516610bf8576040517fea553b3400000000000000000000000000000000000000000000000000000000815260040160405180910390fd5b8015610c0357600082555b6001600160a01b038681166000908152600560205260408082208054600019019055918716808252919020805460010190554260a01b17600160e11b17600085815260046020526040812091909155600160e11b84169003610c9557600184016000818152600460205260408120549003610c93576000548114610c935760008181526004602052604090208490555b505b83856001600160a01b0316876001600160a01b03167fddf252ad1be2c89b69c2b068fc378daa952ba7f163c4a11628f55a4df523b3ef60405160405180910390a4505050505050565b610ce6611c34565b600c55565b610cf3611c34565b600260095403610d4a5760405162461bcd60e51b815260206004820152601f60248201527f5265656e7472616e637947756172643a207265656e7472616e742063616c6c0060448201526064015b60405180910390fd5b60026009556000610d5c606447612d5f565b600f549091506001600160a01b03166108fc610d7983600c612d81565b6040518115909202916000818181858888f19350505050610d9957600080fd5b6010546001600160a01b03166108fc610db3836058612d81565b6040518115909202916000818181858888f19350505050610dd357600080fd5b506001600955565b610de3611c34565b600d55565b610df0611c34565b610df8611c8e565b565b610e1583838360405180602001604052806000815250611399565b505050565b610e22611c34565b8051610e3590600a90602084019061276d565b5050565b60608160008167ffffffffffffffff811115610e5757610e5761295a565b604051908082528060200260200182016040528015610ea957816020015b604080516080810182526000808252602080830182905292820181905260608201528252600019909201910181610e755790505b50905060005b828114610efc57610ed7868683818110610ecb57610ecb612da0565b905060200201356113e3565b828281518110610ee957610ee9612da0565b6020908102919091010152600101610eaf565b50949350505050565b600061093482611bac565b60006001600160a01b038216610f52576040517f8f4eb60400000000000000000000000000000000000000000000000000000000815260040160405180910390fd5b506001600160a01b031660009081526005602052604090205467ffffffffffffffff1690565b610f80611c34565b610df86000611cfe565b610f92611c34565b610df8611d68565b60606000806000610faa85610f10565b905060008167ffffffffffffffff811115610fc757610fc761295a565b604051908082528060200260200182016040528015610ff0578160200160208202803683370190505b5060408051608081018252600080825260208201819052918101829052606081019190915290915060015b8386146110925761102b81611dc6565b9150816040015161108a5781516001600160a01b03161561104b57815194505b876001600160a01b0316856001600160a01b03160361108a578083878060010198508151811061107d5761107d612da0565b6020026020010181815250505b60010161101b565b50909695505050505050565b6110a6611c34565b610df8611e45565b6110b6611c34565b600d54816110c76000546000190190565b6110d19190612db6565b111561111f5760405162461bcd60e51b815260206004820152601660248201527f45786365656473206d6178696d756d20737570706c79000000000000000000006044820152606401610d41565b610e358282611edb565b611131611c34565b600b55565b60606003805461094990612d0f565b6060818310611180576040517f32c1995a00000000000000000000000000000000000000000000000000000000815260040160405180910390fd5b60008061118c60005490565b9050600185101561119c57600194505b808411156111a8578093505b60006111b387610f10565b9050848610156111d257858503818110156111cc578091505b506111d6565b5060005b60008167ffffffffffffffff8111156111f1576111f161295a565b60405190808252806020026020018201604052801561121a578160200160208202803683370190505b509050816000036112305793506112df92505050565b600061123b886113e3565b90506000816040015161124c575080515b885b88811415801561125e5750848714155b156112d35761126c81611dc6565b925082604001516112cb5782516001600160a01b03161561128c57825191505b8a6001600160a01b0316826001600160a01b0316036112cb57808488806001019950815181106112be576112be612da0565b6020026020010181815250505b60010161124e565b50505092835250909150505b9392505050565b336001600160a01b03831603611328576040517fb06307db00000000000000000000000000000000000000000000000000000000815260040160405180910390fd5b3360008181526007602090815260408083206001600160a01b03871680855290835292819020805460ff191686151590811790915590519081529192917f17307eab39ab6107e8899845ad3d59bd9653f200f220920489ca2b5937696c31910160405180910390a35050565b905090565b6113a4848484610afa565b6001600160a01b0383163b156113dd576113c084848484611ef5565b6113dd576040516368d2bf6b60e11b815260040160405180910390fd5b50505050565b604080516080810182526000808252602082018190529181018290526060810191909152604080516080810182526000808252602082018190529181018290526060810191909152600183108061143c57506000548310155b156114475792915050565b61145083611dc6565b90508060400151156114625792915050565b6112df83611fe1565b611473611c34565b610df8600880547fffffffffffffffffff00ffffffffffffffffffffffffffffffffffffffffffff16600160b01b179055565b60606114b182611b77565b6114e7576040517fa14c4b5000000000000000000000000000000000000000000000000000000000815260040160405180910390fd5b60006114f1612059565b9050805160000361151157604051806020016040528060008152506112df565b8061151b84612068565b60405160200161152c929190612dce565b6040516020818303038152906040529392505050565b61154a611c34565b610df8600880547fffffffffffffffffff00ffffffffffffffffffffffffffffffffffffffffffff169055565b600a805461158490612d0f565b80601f01602080910402602001604051908101604052809291908181526020018280546115b090612d0f565b80156115fd5780601f106115d2576101008083540402835291602001916115fd565b820191906000526020600020905b8154815290600101906020018083116115e057829003601f168201915b505050505081565b600061139460015490565b600854600160b01b900460ff166116575760405162461bcd60e51b815260206004820152600b60248201526a14d85b194818db1bdcd95960aa1b6044820152606401610d41565b61165f6120a0565b600061166b33836120fa565b905061167f6008546001600160a01b031690565b6001600160a01b0316816001600160a01b0316146116df5760405162461bcd60e51b815260206004820152601660248201527f4e6f7420617574686f72697a656420746f206d696e74000000000000000000006044820152606401610d41565b336000908152600e60205260409020546003906116fd908590612db6565b11156117555760405162461bcd60e51b815260206004820152602160248201527f43616e206f6e6c79206d696e74203320746f6b656e73206174206164647265736044820152607360f81b6064820152608401610d41565b600d54836117666000546000190190565b6117709190612db6565b11156117be5760405162461bcd60e51b815260206004820152601660248201527f45786365656473206d6178696d756d20737570706c79000000000000000000006044820152606401610d41565b336000908152600e602052604081205460021461180257336000908152600e60205260409020546117fd906001906117f7908790612db6565b90612197565b611806565b6001805b915050801580611823575080600b5461181f9190612d81565b3410155b61186f5760405162461bcd60e51b815260206004820152601f60248201527f45746865722076616c75652073656e74206973206e6f7420636f7272656374006044820152606401610d41565b6118793385611edb565b336000908152600e602052604081208054869290611898908490612db6565b909155505050505050565b6001600160a01b0381166000908152600560205260408082205467ffffffffffffffff911c16610934565b6118d6611c34565b6001600160a01b0381166119525760405162461bcd60e51b815260206004820152602660248201527f4f776e61626c653a206e6577206f776e657220697320746865207a65726f206160448201527f64647265737300000000000000000000000000000000000000000000000000006064820152608401610d41565b61195b81611cfe565b50565b600854600160a81b900460ff166119a55760405162461bcd60e51b815260206004820152600b60248201526a14d85b194818db1bdcd95960aa1b6044820152606401610d41565b6119ad6120a0565b60006119b933836120fa565b90506119cd6008546001600160a01b031690565b6001600160a01b0316816001600160a01b031614611a2d5760405162461bcd60e51b815260206004820152601660248201527f4e6f7420617574686f72697a656420746f206d696e74000000000000000000006044820152606401610d41565b336000908152600e6020526040902054600490611a4b908590612db6565b1115611aa35760405162461bcd60e51b815260206004820152602160248201527f43616e206f6e6c79206d696e74203420746f6b656e73206174206164647265736044820152607360f81b6064820152608401610d41565b600d5483611ab46000546000190190565b611abe9190612db6565b1115611b0c5760405162461bcd60e51b815260206004820152601660248201527f45786365656473206d6178696d756d20737570706c79000000000000000000006044820152606401610d41565b336000908152600e6020526040812054600314611b4a57336000908152600e6020526040902054611b45906002906117f7908790612db6565b611b4e565b6001805b915050801580611823575080600c5461181f9190612d81565b611b6f611c34565b610df86121bd565b600081600111158015611b8b575060005482105b8015610934575050600090815260046020526040902054600160e01b161590565b60008180600111611c0257600054811015611c025760008181526004602052604081205490600160e01b82169003611c00575b806000036112df575060001901600081815260046020526040902054611bdf565b505b6040517fdf2d9b4200000000000000000000000000000000000000000000000000000000815260040160405180910390fd5b6008546001600160a01b03163314610df85760405162461bcd60e51b815260206004820181905260248201527f4f776e61626c653a2063616c6c6572206973206e6f7420746865206f776e65726044820152606401610d41565b611c9661226d565b600880547fffffffffffffffffffffff00ffffffffffffffffffffffffffffffffffffffff1690557f5db9ee0a495bf2e6ff9c91a7834c1ba4fdd244a5e8aa4e537bd38aeae4b073aa335b6040516001600160a01b03909116815260200160405180910390a1565b600880546001600160a01b038381167fffffffffffffffffffffffff0000000000000000000000000000000000000000831681179093556040519116919082907f8be0079c531659141344cd1fd0a4f28419497f9722a3daafe3b4186f6b6457e090600090a35050565b611d706120a0565b600880547fffffffffffffffffffffff00ffffffffffffffffffffffffffffffffffffffff16600160a01b1790557f62e78cea01bee320cd4e420270b5ea74000d11b0c9f74754ebdbfc544b05a258611ce13390565b60408051608081018252600080825260208201819052918101829052606081019190915260008281526004602052604090205461093490604080516080810182526001600160a01b038316815260a083901c67ffffffffffffffff166020820152600160e01b831615159181019190915260e89190911c606082015290565b600854600160a81b900460ff16611e8c5760405162461bcd60e51b815260206004820152600b60248201526a14d85b194818db1bdcd95960aa1b6044820152606401610d41565b600880547fffffffffffffffffffff00ffffffffffffffffffffffffffffffffffffffffff1690557f9e209206b95275a497262e47a30901f0716b2d6d19618dd5e9b7b68237e7cb7133611ce1565b610e358282604051806020016040528060008152506122c6565b604051630a85bd0160e11b81526000906001600160a01b0385169063150b7a0290611f2a903390899088908890600401612dfd565b6020604051808303816000875af1925050508015611f65575060408051601f3d908101601f19168201909252611f6291810190612e39565b60015b611fc3573d808015611f93576040519150601f19603f3d011682016040523d82523d6000602084013e611f98565b606091505b508051600003611fbb576040516368d2bf6b60e11b815260040160405180910390fd5b805181602001fd5b6001600160e01b031916630a85bd0160e11b1490505b949350505050565b60408051608081018252600080825260208201819052918101829052606081019190915261093461201183611bac565b604080516080810182526001600160a01b038316815260a083901c67ffffffffffffffff166020820152600160e01b831615159181019190915260e89190911c606082015290565b6060600a805461094990612d0f565b604080516080019081905280825b600183039250600a81066030018353600a9004806120765750819003601f19909101908152919050565b600854600160a01b900460ff1615610df85760405162461bcd60e51b815260206004820152601060248201527f5061757361626c653a20706175736564000000000000000000000000000000006044820152606401610d41565b60408051606084901b7fffffffffffffffffffffffffffffffffffffffff00000000000000000000000016602080830191909152825160148184030181526034830184528051908201207f19457468657265756d205369676e6564204d6573736167653a0a333200000000605484015260708084019190915283518084039091018152609090920190925280519101206000906112df9083612333565b600080838311156121ad575060009050806121b6565b50600190508183035b9250929050565b600854600160a81b900460ff16156122175760405162461bcd60e51b815260206004820152600e60248201527f50726573616c6520636c6f7365640000000000000000000000000000000000006044820152606401610d41565b600880547fffffffffffffffffffff00ffffffffffffffffffffffffffffffffffffffffff16600160a81b1790557fb1412a7cd96bc4195d633c938189c320dcbeb2cff60c1b8bdd872678fb3514b4611ce13390565b600854600160a01b900460ff16610df85760405162461bcd60e51b815260206004820152601460248201527f5061757361626c653a206e6f74207061757365640000000000000000000000006044820152606401610d41565b6122d08383612357565b6001600160a01b0383163b15610e15576000548281035b6122fa6000868380600101945086611ef5565b612317576040516368d2bf6b60e11b815260040160405180910390fd5b8181106122e757816000541461232c57600080fd5b5050505050565b60008060006123428585612488565b9150915061234f816124ca565b509392505050565b6000805490829003612395576040517fb562e8dd00000000000000000000000000000000000000000000000000000000815260040160405180910390fd5b6001600160a01b03831660008181526005602090815260408083208054680100000000000000018802019055848352600490915281206001851460e11b4260a01b178317905582840190839083907fddf252ad1be2c89b69c2b068fc378daa952ba7f163c4a11628f55a4df523b3ef8180a4600183015b81811461244457808360007fddf252ad1be2c89b69c2b068fc378daa952ba7f163c4a11628f55a4df523b3ef600080a460010161240c565b508160000361247f576040517f2e07630000000000000000000000000000000000000000000000000000000000815260040160405180910390fd5b60005550505050565b60008082516041036124be5760208301516040840151606085015160001a6124b287828585612680565b945094505050506121b6565b506000905060026121b6565b60008160048111156124de576124de612e56565b036124e65750565b60018160048111156124fa576124fa612e56565b036125475760405162461bcd60e51b815260206004820152601860248201527f45434453413a20696e76616c6964207369676e617475726500000000000000006044820152606401610d41565b600281600481111561255b5761255b612e56565b036125a85760405162461bcd60e51b815260206004820152601f60248201527f45434453413a20696e76616c6964207369676e6174757265206c656e677468006044820152606401610d41565b60038160048111156125bc576125bc612e56565b036126145760405162461bcd60e51b815260206004820152602260248201527f45434453413a20696e76616c6964207369676e6174757265202773272076616c604482015261756560f01b6064820152608401610d41565b600481600481111561262857612628612e56565b0361195b5760405162461bcd60e51b815260206004820152602260248201527f45434453413a20696e76616c6964207369676e6174757265202776272076616c604482015261756560f01b6064820152608401610d41565b6000807f7fffffffffffffffffffffffffffffff5d576e7357a4501ddfe92f46681b20a08311156126b75750600090506003612764565b8460ff16601b141580156126cf57508460ff16601c14155b156126e05750600090506004612764565b6040805160008082526020820180845289905260ff881692820192909252606081018690526080810185905260019060a0016020604051602081039080840390855afa158015612734573d6000803e3d6000fd5b5050604051601f1901519150506001600160a01b03811661275d57600060019250925050612764565b9150600090505b94509492505050565b82805461277990612d0f565b90600052602060002090601f01602090048101928261279b57600085556127e1565b82601f106127b457805160ff19168380011785556127e1565b828001600101855582156127e1579182015b828111156127e15782518255916020019190600101906127c6565b506127ed9291506127f1565b5090565b5b808211156127ed57600081556001016127f2565b6001600160e01b03198116811461195b57600080fd5b60006020828403121561282e57600080fd5b81356112df81612806565b60005b8381101561285457818101518382015260200161283c565b838111156113dd5750506000910152565b6000815180845261287d816020860160208601612839565b601f01601f19169290920160200192915050565b6020815260006112df6020830184612865565b6000602082840312156128b657600080fd5b5035919050565b80356001600160a01b03811681146128d457600080fd5b919050565b600080604083850312156128ec57600080fd5b6128f5836128bd565b946020939093013593505050565b60008060006060848603121561291857600080fd5b612921846128bd565b925061292f602085016128bd565b9150604084013590509250925092565b60006020828403121561295157600080fd5b6112df826128bd565b634e487b7160e01b600052604160045260246000fd5b600067ffffffffffffffff8084111561298b5761298b61295a565b604051601f8501601f19908116603f011681019082821181831017156129b3576129b361295a565b816040528093508581528686860111156129cc57600080fd5b858560208301376000602087830101525050509392505050565b6000602082840312156129f857600080fd5b813567ffffffffffffffff811115612a0f57600080fd5b8201601f81018413612a2057600080fd5b611fd984823560208401612970565b60008060208385031215612a4257600080fd5b823567ffffffffffffffff80821115612a5a57600080fd5b818501915085601f830112612a6e57600080fd5b813581811115612a7d57600080fd5b8660208260051b8501011115612a9257600080fd5b60209290920196919550909350505050565b6020808252825182820181905260009190848201906040850190845b8181101561109257612b0e8385516001600160a01b03815116825267ffffffffffffffff602082015116602083015260408101511515604083015262ffffff60608201511660608301525050565b9284019260809290920191600101612ac0565b6020808252825182820181905260009190848201906040850190845b8181101561109257835183529284019291840191600101612b3d565b600080600060608486031215612b6e57600080fd5b612b77846128bd565b95602085013595506040909401359392505050565b60008060408385031215612b9f57600080fd5b612ba8836128bd565b915060208301358015158114612bbd57600080fd5b809150509250929050565b600082601f830112612bd957600080fd5b6112df83833560208501612970565b60008060008060808587031215612bfe57600080fd5b612c07856128bd565b9350612c15602086016128bd565b925060408501359150606085013567ffffffffffffffff811115612c3857600080fd5b612c4487828801612bc8565b91505092959194509250565b81516001600160a01b0316815260208083015167ffffffffffffffff169082015260408083015115159082015260608083015162ffffff169082015260808101610934565b60008060408385031215612ca857600080fd5b82359150602083013567ffffffffffffffff811115612cc657600080fd5b612cd285828601612bc8565b9150509250929050565b60008060408385031215612cef57600080fd5b612cf8836128bd565b9150612d06602084016128bd565b90509250929050565b600181811c90821680612d2357607f821691505b602082108103612d4357634e487b7160e01b600052602260045260246000fd5b50919050565b634e487b7160e01b600052601160045260246000fd5b600082612d7c57634e487b7160e01b600052601260045260246000fd5b500490565b6000816000190483118215151615612d9b57612d9b612d49565b500290565b634e487b7160e01b600052603260045260246000fd5b60008219821115612dc957612dc9612d49565b500190565b60008351612de0818460208801612839565b835190830190612df4818360208801612839565b01949350505050565b60006001600160a01b03808716835280861660208401525083604083015260806060830152612e2f6080830184612865565b9695505050505050565b600060208284031215612e4b57600080fd5b81516112df81612806565b634e487b7160e01b600052602160045260246000fdfea2646970667358221220067f680d4242e43b952e3067d1cd2b045b119fa6c12583c531e4503184c3f96264736f6c634300080e0033",
  "immutableReferences": {},
  "source": "// SPDX-License-Identifier: MIT\npragma solidity ^0.8.9;\n\nimport \"erc721a/contracts/extensions/ERC721AQueryable.sol\";\nimport \"@openzeppelin/contracts/access/Ownable.sol\";\nimport \"@openzeppelin/contracts/security/Pausable.sol\";\nimport \"@openzeppelin/contracts/utils/math/SafeMath.sol\";\nimport \"@openzeppelin/contracts/utils/cryptography/ECDSA.sol\";\nimport \"@openzeppelin/contracts/security/ReentrancyGuard.sol\";\n\nimport \"./Presalable.sol\";\n\ncontract HappyPlanetClub is ERC721AQueryable, Ownable, Pausable, Presalable, ReentrancyGuard {\n  using SafeMath for uint;\n  using ECDSA for bytes32;\n\n  string public baseTokenURI;\n\n  uint256 public price = 0.009 ether;\n  uint256 public presalePrice = 0.006 ether;\n  uint256 public maxTotalSupply = 3000;\n\n  mapping(address => uint256) public tokenOwnersCounter;\n\n  address t1 = 0x402351069CFF2F0324A147eC0a138a1C21491591;\n  address t2 = 0xe6Fa2a32A99ad27Cd21A9E740405DBA7e0C6e3f3;\n\n  constructor(string memory _baseTokenURI) ERC721A(\"Happy Planet Club\", \"HPC\")  {\n    setBaseURI(_baseTokenURI);\n    presale();\n  }\n\n  function totalMinted() public view returns (uint256) {\n    return _totalMinted();\n  }\n\n  function totalBurned() public view returns (uint256) {\n    return _totalBurned();\n  }\n\n  function numberMinted(address owner) public view returns (uint256) {\n    return _numberMinted(owner);\n  }\n\n  function mint(uint256 _amount, bytes memory _signature) public payable whenAllowedPublic whenNotPaused {\n    address signer = _recoverSigner(msg.sender, _signature);\n    \n    require(signer == owner(), \"Not authorized to mint\");\n    require(tokenOwnersCounter[msg.sender] + _amount <= 3, \"Can only mint 3 tokens at address\");\n    require(_totalMinted() + _amount <= maxTotalSupply, \"Exceeds maximum supply\");\n\n    (, uint256 _nonFreeAmount) = tokenOwnersCounter[msg.sender] == 2 \n                                 ? (true, 1) : (tokenOwnersCounter[msg.sender] + _amount).trySub(1);\n\n    require(_nonFreeAmount == 0 || msg.value >= price * _nonFreeAmount, \"Ether value sent is not correct\");\n\n    _safeMint(msg.sender, _amount);\n\n    tokenOwnersCounter[msg.sender] += _amount;\n  }\n\n  function presaleMint(uint256 _amount, bytes memory _signature) public payable whenPresaled whenNotPaused {        \n    address signer = _recoverSigner(msg.sender, _signature);\n\n    require(signer == owner(), \"Not authorized to mint\");\n    require(tokenOwnersCounter[msg.sender] + _amount <= 4, \"Can only mint 4 tokens at address\");\n    require(_totalMinted() + _amount <= maxTotalSupply, \"Exceeds maximum supply\");\n\n    (, uint256 _nonFreeAmount) = tokenOwnersCounter[msg.sender] == 3 \n                                 ? (true, 1) : (tokenOwnersCounter[msg.sender] + _amount).trySub(2);\n\n    require(_nonFreeAmount == 0 || msg.value >= presalePrice * _nonFreeAmount, \"Ether value sent is not correct\");\n\n    _safeMint(msg.sender, _amount);\n\n    tokenOwnersCounter[msg.sender] += _amount;\n  }\n\n  function airdrop(address _owner, uint256 _amount) public onlyOwner {\n    require(_totalMinted() + _amount <= maxTotalSupply, \"Exceeds maximum supply\");\n\n    _safeMint(_owner, _amount);\n  }\n\n  function _baseURI() internal view virtual override returns (string memory) {\n    return baseTokenURI;\n  }\n\n  function setBaseURI(string memory _baseTokenURI) public onlyOwner {\n    baseTokenURI = _baseTokenURI;\n  }\n\n  function setPrice(uint256 _newPrice) public onlyOwner{\n    price = _newPrice;\n  }\n\n  function setPresalePrice(uint256 _newPrice) public onlyOwner{\n    presalePrice = _newPrice;\n  }\n\n  function setMaxTotalSupply(uint256 _count) public onlyOwner{\n    maxTotalSupply = _count;\n  }\n\n  function withdraw() external onlyOwner nonReentrant {\n    uint256 _balance = address(this).balance / 100;\n\n    require(payable(t1).send(_balance * 12));\n    require(payable(t2).send(_balance * 88));\n  }\n\n  function pause() public onlyOwner {\n    _pause();\n  }\n\n  function unpause() public onlyOwner {\n    _unpause();\n  }\n\n  function presale() public onlyOwner {\n    _presale();\n  }\n\n  function unpresale() public onlyOwner {\n    _unpresale();\n  }\n\n  function allowPublic() public onlyOwner {\n    _allowPublic();\n  }\n\n  function disallowPublic() public onlyOwner {\n    _disallowPublic();\n  }\n\n  function _recoverSigner(address _wallet, bytes memory _signature) private pure returns (address){\n    return keccak256(abi.encodePacked(_wallet)).toEthSignedMessageHash().recover(_signature);\n  }\n\n  function _startTokenId() internal view virtual override returns (uint256) {\n    return 1;\n  }\n}",
  "sourcePath": "/Users/doss/Projects/happyplanetclub/packages/truffle/contracts/HappyPlanetClub.sol",
  "compiler": {
    "name": "solc",
    "version": "0.8.14+commit.80d49f37.Emscripten.clang"
  },
  "schemaVersion": "3.4.7",
  "updatedAt": "2022-08-27T16:32:12.062Z",
  "devdoc": {
    "kind": "dev",
    "methods": {
      "approve(address,uint256)": {
        "details": "Gives permission to `to` to transfer `tokenId` token to another account. The approval is cleared when the token is transferred. Only a single account can be approved at a time, so approving the zero address clears previous approvals. Requirements: - The caller must own the token or be an approved operator. - `tokenId` must exist. Emits an {Approval} event."
      },
      "balanceOf(address)": {
        "details": "Returns the number of tokens in `owner`'s account."
      },
      "explicitOwnershipOf(uint256)": {
        "details": "Returns the `TokenOwnership` struct at `tokenId` without reverting. If the `tokenId` is out of bounds: - `addr = address(0)` - `startTimestamp = 0` - `burned = false` - `extraData = 0` If the `tokenId` is burned: - `addr = <Address of owner before token was burned>` - `startTimestamp = <Timestamp when token was burned>` - `burned = true` - `extraData = <Extra data when token was burned>` Otherwise: - `addr = <Address of owner>` - `startTimestamp = <Timestamp of start of ownership>` - `burned = false` - `extraData = <Extra data at start of ownership>`"
      },
      "explicitOwnershipsOf(uint256[])": {
        "details": "Returns an array of `TokenOwnership` structs at `tokenIds` in order. See {ERC721AQueryable-explicitOwnershipOf}"
      },
      "getApproved(uint256)": {
        "details": "Returns the account approved for `tokenId` token. Requirements: - `tokenId` must exist."
      },
      "isApprovedForAll(address,address)": {
        "details": "Returns if the `operator` is allowed to manage all of the assets of `owner`. See {setApprovalForAll}."
      },
      "name()": {
        "details": "Returns the token collection name."
      },
      "owner()": {
        "details": "Returns the address of the current owner."
      },
      "ownerOf(uint256)": {
        "details": "Returns the owner of the `tokenId` token. Requirements: - `tokenId` must exist."
      },
      "paused()": {
        "details": "Returns true if the contract is paused, and false otherwise."
      },
      "renounceOwnership()": {
        "details": "Leaves the contract without owner. It will not be possible to call `onlyOwner` functions anymore. Can only be called by the current owner. NOTE: Renouncing ownership will leave the contract without an owner, thereby removing any functionality that is only available to the owner."
      },
      "safeTransferFrom(address,address,uint256)": {
        "details": "Equivalent to `safeTransferFrom(from, to, tokenId, '')`."
      },
      "safeTransferFrom(address,address,uint256,bytes)": {
        "details": "Safely transfers `tokenId` token from `from` to `to`. Requirements: - `from` cannot be the zero address. - `to` cannot be the zero address. - `tokenId` token must exist and be owned by `from`. - If the caller is not `from`, it must be approved to move this token by either {approve} or {setApprovalForAll}. - If `to` refers to a smart contract, it must implement {IERC721Receiver-onERC721Received}, which is called upon a safe transfer. Emits a {Transfer} event."
      },
      "setApprovalForAll(address,bool)": {
        "details": "Approve or remove `operator` as an operator for the caller. Operators can call {transferFrom} or {safeTransferFrom} for any token owned by the caller. Requirements: - The `operator` cannot be the caller. Emits an {ApprovalForAll} event."
      },
      "supportsInterface(bytes4)": {
        "details": "Returns true if this contract implements the interface defined by `interfaceId`. See the corresponding [EIP section](https://eips.ethereum.org/EIPS/eip-165#how-interfaces-are-identified) to learn more about how these ids are created. This function call must use less than 30000 gas."
      },
      "symbol()": {
        "details": "Returns the token collection symbol."
      },
      "tokenURI(uint256)": {
        "details": "Returns the Uniform Resource Identifier (URI) for `tokenId` token."
      },
      "tokensOfOwner(address)": {
        "details": "Returns an array of token IDs owned by `owner`. This function scans the ownership mapping and is O(`totalSupply`) in complexity. It is meant to be called off-chain. See {ERC721AQueryable-tokensOfOwnerIn} for splitting the scan into multiple smaller scans if the collection is large enough to cause an out-of-gas error (10K collections should be fine)."
      },
      "tokensOfOwnerIn(address,uint256,uint256)": {
        "details": "Returns an array of token IDs owned by `owner`, in the range [`start`, `stop`) (i.e. `start <= tokenId < stop`). This function allows for tokens to be queried if the collection grows too big for a single call of {ERC721AQueryable-tokensOfOwner}. Requirements: - `start < stop`"
      },
      "totalSupply()": {
        "details": "Returns the total number of tokens in existence. Burned tokens will reduce the count. To get the total number of tokens minted, please see {_totalMinted}."
      },
      "transferFrom(address,address,uint256)": {
        "details": "Transfers `tokenId` from `from` to `to`. Requirements: - `from` cannot be the zero address. - `to` cannot be the zero address. - `tokenId` token must be owned by `from`. - If the caller is not `from`, it must be approved to move this token by either {approve} or {setApprovalForAll}. Emits a {Transfer} event."
      },
      "transferOwnership(address)": {
        "details": "Transfers ownership of the contract to a new account (`newOwner`). Can only be called by the current owner."
      }
    },
    "version": 1
  },
  "userdoc": {
    "errors": {
      "ApprovalCallerNotOwnerNorApproved()": [
        {
          "notice": "The caller must own the token or be an approved operator."
        }
      ],
      "ApprovalQueryForNonexistentToken()": [
        {
          "notice": "The token does not exist."
        }
      ],
      "ApproveToCaller()": [
        {
          "notice": "The caller cannot approve to their own address."
        }
      ],
      "BalanceQueryForZeroAddress()": [
        {
          "notice": "Cannot query the balance for the zero address."
        }
      ],
      "InvalidQueryRange()": [
        {
          "notice": "Invalid query range (`start` >= `stop`)."
        }
      ],
      "MintERC2309QuantityExceedsLimit()": [
        {
          "notice": "The `quantity` minted with ERC2309 exceeds the safety limit."
        }
      ],
      "MintToZeroAddress()": [
        {
          "notice": "Cannot mint to the zero address."
        }
      ],
      "MintZeroQuantity()": [
        {
          "notice": "The quantity of tokens minted must be more than zero."
        }
      ],
      "OwnerQueryForNonexistentToken()": [
        {
          "notice": "The token does not exist."
        }
      ],
      "OwnershipNotInitializedForExtraData()": [
        {
          "notice": "The `extraData` cannot be set on an unintialized ownership slot."
        }
      ],
      "TransferCallerNotOwnerNorApproved()": [
        {
          "notice": "The caller must own the token or be an approved operator."
        }
      ],
      "TransferFromIncorrectOwner()": [
        {
          "notice": "The token must be owned by `from`."
        }
      ],
      "TransferToNonERC721ReceiverImplementer()": [
        {
          "notice": "Cannot safely transfer to a contract that does not implement the ERC721Receiver interface."
        }
      ],
      "TransferToZeroAddress()": [
        {
          "notice": "Cannot transfer to the zero address."
        }
      ],
      "URIQueryForNonexistentToken()": [
        {
          "notice": "The token does not exist."
        }
      ]
    },
    "kind": "user",
    "methods": {},
    "version": 1
  }
}