{
  "contractName": "HappyPlanetClub",
  "abi": [
    {
      "inputs": [
        {
          "internalType": "string",
          "name": "_baseTokenURI",
          "type": "string"
        }
      ],
      "stateMutability": "nonpayable",
      "type": "constructor"
    },
    {
      "inputs": [],
      "name": "ApprovalCallerNotOwnerNorApproved",
      "type": "error"
    },
    {
      "inputs": [],
      "name": "ApprovalQueryForNonexistentToken",
      "type": "error"
    },
    {
      "inputs": [],
      "name": "ApproveToCaller",
      "type": "error"
    },
    {
      "inputs": [],
      "name": "BalanceQueryForZeroAddress",
      "type": "error"
    },
    {
      "inputs": [],
      "name": "InvalidQueryRange",
      "type": "error"
    },
    {
      "inputs": [],
      "name": "MintERC2309QuantityExceedsLimit",
      "type": "error"
    },
    {
      "inputs": [],
      "name": "MintToZeroAddress",
      "type": "error"
    },
    {
      "inputs": [],
      "name": "MintZeroQuantity",
      "type": "error"
    },
    {
      "inputs": [],
      "name": "OwnerQueryForNonexistentToken",
      "type": "error"
    },
    {
      "inputs": [],
      "name": "OwnershipNotInitializedForExtraData",
      "type": "error"
    },
    {
      "inputs": [],
      "name": "TransferCallerNotOwnerNorApproved",
      "type": "error"
    },
    {
      "inputs": [],
      "name": "TransferFromIncorrectOwner",
      "type": "error"
    },
    {
      "inputs": [],
      "name": "TransferToNonERC721ReceiverImplementer",
      "type": "error"
    },
    {
      "inputs": [],
      "name": "TransferToZeroAddress",
      "type": "error"
    },
    {
      "inputs": [],
      "name": "URIQueryForNonexistentToken",
      "type": "error"
    },
    {
      "anonymous": false,
      "inputs": [
        {
          "indexed": true,
          "internalType": "address",
          "name": "owner",
          "type": "address"
        },
        {
          "indexed": true,
          "internalType": "address",
          "name": "approved",
          "type": "address"
        },
        {
          "indexed": true,
          "internalType": "uint256",
          "name": "tokenId",
          "type": "uint256"
        }
      ],
      "name": "Approval",
      "type": "event"
    },
    {
      "anonymous": false,
      "inputs": [
        {
          "indexed": true,
          "internalType": "address",
          "name": "owner",
          "type": "address"
        },
        {
          "indexed": true,
          "internalType": "address",
          "name": "operator",
          "type": "address"
        },
        {
          "indexed": false,
          "internalType": "bool",
          "name": "approved",
          "type": "bool"
        }
      ],
      "name": "ApprovalForAll",
      "type": "event"
    },
    {
      "anonymous": false,
      "inputs": [
        {
          "indexed": true,
          "internalType": "uint256",
          "name": "fromTokenId",
          "type": "uint256"
        },
        {
          "indexed": false,
          "internalType": "uint256",
          "name": "toTokenId",
          "type": "uint256"
        },
        {
          "indexed": true,
          "internalType": "address",
          "name": "from",
          "type": "address"
        },
        {
          "indexed": true,
          "internalType": "address",
          "name": "to",
          "type": "address"
        }
      ],
      "name": "ConsecutiveTransfer",
      "type": "event"
    },
    {
      "anonymous": false,
      "inputs": [
        {
          "indexed": true,
          "internalType": "address",
          "name": "previousOwner",
          "type": "address"
        },
        {
          "indexed": true,
          "internalType": "address",
          "name": "newOwner",
          "type": "address"
        }
      ],
      "name": "OwnershipTransferred",
      "type": "event"
    },
    {
      "anonymous": false,
      "inputs": [
        {
          "indexed": false,
          "internalType": "address",
          "name": "account",
          "type": "address"
        }
      ],
      "name": "Paused",
      "type": "event"
    },
    {
      "anonymous": false,
      "inputs": [
        {
          "indexed": false,
          "internalType": "address",
          "name": "account",
          "type": "address"
        }
      ],
      "name": "Presaled",
      "type": "event"
    },
    {
      "anonymous": false,
      "inputs": [
        {
          "indexed": true,
          "internalType": "address",
          "name": "from",
          "type": "address"
        },
        {
          "indexed": true,
          "internalType": "address",
          "name": "to",
          "type": "address"
        },
        {
          "indexed": true,
          "internalType": "uint256",
          "name": "tokenId",
          "type": "uint256"
        }
      ],
      "name": "Transfer",
      "type": "event"
    },
    {
      "anonymous": false,
      "inputs": [
        {
          "indexed": false,
          "internalType": "address",
          "name": "account",
          "type": "address"
        }
      ],
      "name": "Unpaused",
      "type": "event"
    },
    {
      "anonymous": false,
      "inputs": [
        {
          "indexed": false,
          "internalType": "address",
          "name": "account",
          "type": "address"
        }
      ],
      "name": "Unpresaled",
      "type": "event"
    },
    {
      "inputs": [
        {
          "internalType": "address",
          "name": "to",
          "type": "address"
        },
        {
          "internalType": "uint256",
          "name": "tokenId",
          "type": "uint256"
        }
      ],
      "name": "approve",
      "outputs": [],
      "stateMutability": "nonpayable",
      "type": "function"
    },
    {
      "inputs": [
        {
          "internalType": "address",
          "name": "owner",
          "type": "address"
        }
      ],
      "name": "balanceOf",
      "outputs": [
        {
          "internalType": "uint256",
          "name": "",
          "type": "uint256"
        }
      ],
      "stateMutability": "view",
      "type": "function",
      "constant": true
    },
    {
      "inputs": [],
      "name": "baseTokenURI",
      "outputs": [
        {
          "internalType": "string",
          "name": "",
          "type": "string"
        }
      ],
      "stateMutability": "view",
      "type": "function",
      "constant": true
    },
    {
      "inputs": [
        {
          "internalType": "uint256",
          "name": "tokenId",
          "type": "uint256"
        }
      ],
      "name": "explicitOwnershipOf",
      "outputs": [
        {
          "components": [
            {
              "internalType": "address",
              "name": "addr",
              "type": "address"
            },
            {
              "internalType": "uint64",
              "name": "startTimestamp",
              "type": "uint64"
            },
            {
              "internalType": "bool",
              "name": "burned",
              "type": "bool"
            },
            {
              "internalType": "uint24",
              "name": "extraData",
              "type": "uint24"
            }
          ],
          "internalType": "struct IERC721A.TokenOwnership",
          "name": "",
          "type": "tuple"
        }
      ],
      "stateMutability": "view",
      "type": "function",
      "constant": true
    },
    {
      "inputs": [
        {
          "internalType": "uint256[]",
          "name": "tokenIds",
          "type": "uint256[]"
        }
      ],
      "name": "explicitOwnershipsOf",
      "outputs": [
        {
          "components": [
            {
              "internalType": "address",
              "name": "addr",
              "type": "address"
            },
            {
              "internalType": "uint64",
              "name": "startTimestamp",
              "type": "uint64"
            },
            {
              "internalType": "bool",
              "name": "burned",
              "type": "bool"
            },
            {
              "internalType": "uint24",
              "name": "extraData",
              "type": "uint24"
            }
          ],
          "internalType": "struct IERC721A.TokenOwnership[]",
          "name": "",
          "type": "tuple[]"
        }
      ],
      "stateMutability": "view",
      "type": "function",
      "constant": true
    },
    {
      "inputs": [
        {
          "internalType": "uint256",
          "name": "tokenId",
          "type": "uint256"
        }
      ],
      "name": "getApproved",
      "outputs": [
        {
          "internalType": "address",
          "name": "",
          "type": "address"
        }
      ],
      "stateMutability": "view",
      "type": "function",
      "constant": true
    },
    {
      "inputs": [
        {
          "internalType": "address",
          "name": "owner",
          "type": "address"
        },
        {
          "internalType": "address",
          "name": "operator",
          "type": "address"
        }
      ],
      "name": "isApprovedForAll",
      "outputs": [
        {
          "internalType": "bool",
          "name": "",
          "type": "bool"
        }
      ],
      "stateMutability": "view",
      "type": "function",
      "constant": true
    },
    {
      "inputs": [],
      "name": "maxTotalSupply",
      "outputs": [
        {
          "internalType": "uint256",
          "name": "",
          "type": "uint256"
        }
      ],
      "stateMutability": "view",
      "type": "function",
      "constant": true
    },
    {
      "inputs": [],
      "name": "name",
      "outputs": [
        {
          "internalType": "string",
          "name": "",
          "type": "string"
        }
      ],
      "stateMutability": "view",
      "type": "function",
      "constant": true
    },
    {
      "inputs": [],
      "name": "owner",
      "outputs": [
        {
          "internalType": "address",
          "name": "",
          "type": "address"
        }
      ],
      "stateMutability": "view",
      "type": "function",
      "constant": true
    },
    {
      "inputs": [
        {
          "internalType": "uint256",
          "name": "tokenId",
          "type": "uint256"
        }
      ],
      "name": "ownerOf",
      "outputs": [
        {
          "internalType": "address",
          "name": "",
          "type": "address"
        }
      ],
      "stateMutability": "view",
      "type": "function",
      "constant": true
    },
    {
      "inputs": [],
      "name": "paused",
      "outputs": [
        {
          "internalType": "bool",
          "name": "",
          "type": "bool"
        }
      ],
      "stateMutability": "view",
      "type": "function",
      "constant": true
    },
    {
      "inputs": [],
      "name": "presalePrice",
      "outputs": [
        {
          "internalType": "uint256",
          "name": "",
          "type": "uint256"
        }
      ],
      "stateMutability": "view",
      "type": "function",
      "constant": true
    },
    {
      "inputs": [],
      "name": "presaled",
      "outputs": [
        {
          "internalType": "bool",
          "name": "",
          "type": "bool"
        }
      ],
      "stateMutability": "view",
      "type": "function",
      "constant": true
    },
    {
      "inputs": [],
      "name": "price",
      "outputs": [
        {
          "internalType": "uint256",
          "name": "",
          "type": "uint256"
        }
      ],
      "stateMutability": "view",
      "type": "function",
      "constant": true
    },
    {
      "inputs": [],
      "name": "renounceOwnership",
      "outputs": [],
      "stateMutability": "nonpayable",
      "type": "function"
    },
    {
      "inputs": [
        {
          "internalType": "address",
          "name": "from",
          "type": "address"
        },
        {
          "internalType": "address",
          "name": "to",
          "type": "address"
        },
        {
          "internalType": "uint256",
          "name": "tokenId",
          "type": "uint256"
        }
      ],
      "name": "safeTransferFrom",
      "outputs": [],
      "stateMutability": "nonpayable",
      "type": "function"
    },
    {
      "inputs": [
        {
          "internalType": "address",
          "name": "from",
          "type": "address"
        },
        {
          "internalType": "address",
          "name": "to",
          "type": "address"
        },
        {
          "internalType": "uint256",
          "name": "tokenId",
          "type": "uint256"
        },
        {
          "internalType": "bytes",
          "name": "_data",
          "type": "bytes"
        }
      ],
      "name": "safeTransferFrom",
      "outputs": [],
      "stateMutability": "nonpayable",
      "type": "function"
    },
    {
      "inputs": [
        {
          "internalType": "address",
          "name": "operator",
          "type": "address"
        },
        {
          "internalType": "bool",
          "name": "approved",
          "type": "bool"
        }
      ],
      "name": "setApprovalForAll",
      "outputs": [],
      "stateMutability": "nonpayable",
      "type": "function"
    },
    {
      "inputs": [
        {
          "internalType": "bytes4",
          "name": "interfaceId",
          "type": "bytes4"
        }
      ],
      "name": "supportsInterface",
      "outputs": [
        {
          "internalType": "bool",
          "name": "",
          "type": "bool"
        }
      ],
      "stateMutability": "view",
      "type": "function",
      "constant": true
    },
    {
      "inputs": [],
      "name": "symbol",
      "outputs": [
        {
          "internalType": "string",
          "name": "",
          "type": "string"
        }
      ],
      "stateMutability": "view",
      "type": "function",
      "constant": true
    },
    {
      "inputs": [
        {
          "internalType": "uint256",
          "name": "tokenId",
          "type": "uint256"
        }
      ],
      "name": "tokenURI",
      "outputs": [
        {
          "internalType": "string",
          "name": "",
          "type": "string"
        }
      ],
      "stateMutability": "view",
      "type": "function",
      "constant": true
    },
    {
      "inputs": [
        {
          "internalType": "address",
          "name": "owner",
          "type": "address"
        }
      ],
      "name": "tokensOfOwner",
      "outputs": [
        {
          "internalType": "uint256[]",
          "name": "",
          "type": "uint256[]"
        }
      ],
      "stateMutability": "view",
      "type": "function",
      "constant": true
    },
    {
      "inputs": [
        {
          "internalType": "address",
          "name": "owner",
          "type": "address"
        },
        {
          "internalType": "uint256",
          "name": "start",
          "type": "uint256"
        },
        {
          "internalType": "uint256",
          "name": "stop",
          "type": "uint256"
        }
      ],
      "name": "tokensOfOwnerIn",
      "outputs": [
        {
          "internalType": "uint256[]",
          "name": "",
          "type": "uint256[]"
        }
      ],
      "stateMutability": "view",
      "type": "function",
      "constant": true
    },
    {
      "inputs": [],
      "name": "totalSupply",
      "outputs": [
        {
          "internalType": "uint256",
          "name": "",
          "type": "uint256"
        }
      ],
      "stateMutability": "view",
      "type": "function",
      "constant": true
    },
    {
      "inputs": [
        {
          "internalType": "address",
          "name": "from",
          "type": "address"
        },
        {
          "internalType": "address",
          "name": "to",
          "type": "address"
        },
        {
          "internalType": "uint256",
          "name": "tokenId",
          "type": "uint256"
        }
      ],
      "name": "transferFrom",
      "outputs": [],
      "stateMutability": "nonpayable",
      "type": "function"
    },
    {
      "inputs": [
        {
          "internalType": "address",
          "name": "newOwner",
          "type": "address"
        }
      ],
      "name": "transferOwnership",
      "outputs": [],
      "stateMutability": "nonpayable",
      "type": "function"
    },
    {
      "inputs": [],
      "name": "totalMinted",
      "outputs": [
        {
          "internalType": "uint256",
          "name": "",
          "type": "uint256"
        }
      ],
      "stateMutability": "view",
      "type": "function",
      "constant": true
    },
    {
      "inputs": [],
      "name": "totalBurned",
      "outputs": [
        {
          "internalType": "uint256",
          "name": "",
          "type": "uint256"
        }
      ],
      "stateMutability": "view",
      "type": "function",
      "constant": true
    },
    {
      "inputs": [
        {
          "internalType": "address",
          "name": "owner",
          "type": "address"
        }
      ],
      "name": "numberMinted",
      "outputs": [
        {
          "internalType": "uint256",
          "name": "",
          "type": "uint256"
        }
      ],
      "stateMutability": "view",
      "type": "function",
      "constant": true
    },
    {
      "inputs": [
        {
          "internalType": "uint256",
          "name": "_amount",
          "type": "uint256"
        },
        {
          "internalType": "bytes",
          "name": "_signature",
          "type": "bytes"
        }
      ],
      "name": "mint",
      "outputs": [],
      "stateMutability": "payable",
      "type": "function",
      "payable": true
    },
    {
      "inputs": [
        {
          "internalType": "uint256",
          "name": "_amount",
          "type": "uint256"
        },
        {
          "internalType": "bytes",
          "name": "_signature",
          "type": "bytes"
        }
      ],
      "name": "presaleMint",
      "outputs": [],
      "stateMutability": "payable",
      "type": "function",
      "payable": true
    },
    {
      "inputs": [
        {
          "internalType": "address",
          "name": "_owner",
          "type": "address"
        },
        {
          "internalType": "uint256",
          "name": "_amount",
          "type": "uint256"
        }
      ],
      "name": "airdrop",
      "outputs": [],
      "stateMutability": "nonpayable",
      "type": "function"
    },
    {
      "inputs": [
        {
          "internalType": "string",
          "name": "_baseTokenURI",
          "type": "string"
        }
      ],
      "name": "setBaseURI",
      "outputs": [],
      "stateMutability": "nonpayable",
      "type": "function"
    },
    {
      "inputs": [
        {
          "internalType": "uint256",
          "name": "_newPrice",
          "type": "uint256"
        }
      ],
      "name": "setPrice",
      "outputs": [],
      "stateMutability": "nonpayable",
      "type": "function"
    },
    {
      "inputs": [
        {
          "internalType": "uint256",
          "name": "_newPrice",
          "type": "uint256"
        }
      ],
      "name": "setPresalePrice",
      "outputs": [],
      "stateMutability": "nonpayable",
      "type": "function"
    },
    {
      "inputs": [
        {
          "internalType": "uint256",
          "name": "_count",
          "type": "uint256"
        }
      ],
      "name": "setMaxTotalSupply",
      "outputs": [],
      "stateMutability": "nonpayable",
      "type": "function"
    },
    {
      "inputs": [],
      "name": "withdraw",
      "outputs": [],
      "stateMutability": "nonpayable",
      "type": "function"
    },
    {
      "inputs": [],
      "name": "pause",
      "outputs": [],
      "stateMutability": "nonpayable",
      "type": "function"
    },
    {
      "inputs": [],
      "name": "unpause",
      "outputs": [],
      "stateMutability": "nonpayable",
      "type": "function"
    },
    {
      "inputs": [],
      "name": "presale",
      "outputs": [],
      "stateMutability": "nonpayable",
      "type": "function"
    },
    {
      "inputs": [],
      "name": "unpresale",
      "outputs": [],
      "stateMutability": "nonpayable",
      "type": "function"
    }
  ],
  "bytecode": "0x6080604052662386f26fc10000600b819055600c5561115c600d55600e805473fe5361e534aa22e9052b50605b8f932fc42a2f2f6001600160a01b03199182168117909255600f805490911690911790553480156200005d57600080fd5b5060405162002f6738038062002f67833981016040819052620000809162000378565b60408051808201825260118152702430b8383c90283630b732ba1021b63ab160791b60208083019182528351808501909452600384526248504360e81b908401528151919291620000d491600291620002bc565b508051620000ea906003906020840190620002bc565b5050600160005550620000fd336200012b565b6008805460ff60a01b1916905560016009556200011a816200017d565b62000124620001a0565b5062000490565b600880546001600160a01b038381166001600160a01b0319831681179093556040519116919082907f8be0079c531659141344cd1fd0a4f28419497f9722a3daafe3b4186f6b6457e090600090a35050565b62000187620001b6565b80516200019c90600a906020840190620002bc565b5050565b620001aa620001b6565b620001b462000216565b565b6008546001600160a01b03163314620001b45760405162461bcd60e51b815260206004820181905260248201527f4f776e61626c653a2063616c6c6572206973206e6f7420746865206f776e657260448201526064015b60405180910390fd5b600854600160a81b900460ff1615620002635760405162461bcd60e51b815260206004820152600e60248201526d141c995cd85b194818db1bdcd95960921b60448201526064016200020d565b6008805460ff60a81b1916600160a81b1790557fb1412a7cd96bc4195d633c938189c320dcbeb2cff60c1b8bdd872678fb3514b46200029f3390565b6040516001600160a01b03909116815260200160405180910390a1565b828054620002ca9062000454565b90600052602060002090601f016020900481019282620002ee576000855562000339565b82601f106200030957805160ff191683800117855562000339565b8280016001018555821562000339579182015b82811115620003395782518255916020019190600101906200031c565b50620003479291506200034b565b5090565b5b808211156200034757600081556001016200034c565b634e487b7160e01b600052604160045260246000fd5b600060208083850312156200038c57600080fd5b82516001600160401b0380821115620003a457600080fd5b818501915085601f830112620003b957600080fd5b815181811115620003ce57620003ce62000362565b604051601f8201601f19908116603f01168101908382118183101715620003f957620003f962000362565b8160405282815288868487010111156200041257600080fd5b600093505b8284101562000436578484018601518185018701529285019262000417565b82841115620004485760008684830101525b98975050505050505050565b600181811c908216806200046957607f821691505b6020821081036200048a57634e487b7160e01b600052602260045260246000fd5b50919050565b612ac780620004a06000396000f3fe6080604052600436106102d05760003560e01c80638462151c11610179578063b88d4fde116100d6578063db7fd4081161008a578063f2fde38b11610064578063f2fde38b146107b3578063fd24a854146107d3578063fdea8e0b146107e657600080fd5b8063db7fd40814610737578063dc33e6811461074a578063e985e9c51461076a57600080fd5b8063c87b56dd116100bb578063c87b56dd146106ed578063d547cfb71461070d578063d89135cd1461072257600080fd5b8063b88d4fde146106a0578063c23dc68f146106c057600080fd5b806395d89b411161012d578063a035b1fe11610112578063a035b1fe14610651578063a22cb46514610667578063a2309ff81461068757600080fd5b806395d89b411461061c57806399a2557a1461063157600080fd5b80638ba4cc3c1161015e5780638ba4cc3c146105be5780638da5cb5b146105de57806391b7f5ed146105fc57600080fd5b80638462151c1461057c57806385493853146105a957600080fd5b80633f3e4c11116102325780635bbb2177116101e657806370a08231116101c057806370a0823114610532578063715018a6146105525780638456cb591461056757600080fd5b80635bbb2177146104c65780635c975abb146104f35780636352211e1461051257600080fd5b806342842e0e1161021757806342842e0e146104675780634cb2f9ea1461048757806355f804b3146104a657600080fd5b80633f3e4c11146104325780633f4ba83a1461045257600080fd5b806318160ddd116102895780632ab4d0521161026e5780632ab4d052146103e75780633549345e146103fd5780633ccfd60b1461041d57600080fd5b806318160ddd146103aa57806323b872dd146103c757600080fd5b806306fdde03116102ba57806306fdde031461032e578063081812fc14610350578063095ea7b31461038857600080fd5b80620e7fa8146102d557806301ffc9a7146102fe575b600080fd5b3480156102e157600080fd5b506102eb600c5481565b6040519081526020015b60405180910390f35b34801561030a57600080fd5b5061031e610319366004612441565b6107fb565b60405190151581526020016102f5565b34801561033a57600080fd5b50610343610898565b6040516102f591906124b6565b34801561035c57600080fd5b5061037061036b3660046124c9565b61092a565b6040516001600160a01b0390911681526020016102f5565b34801561039457600080fd5b506103a86103a33660046124fe565b610987565b005b3480156103b657600080fd5b5060015460005403600019016102eb565b3480156103d357600080fd5b506103a86103e2366004612528565b610a58565b3480156103f357600080fd5b506102eb600d5481565b34801561040957600080fd5b506103a86104183660046124c9565b610c3c565b34801561042957600080fd5b506103a8610c49565b34801561043e57600080fd5b506103a861044d3660046124c9565b610d39565b34801561045e57600080fd5b506103a8610d46565b34801561047357600080fd5b506103a8610482366004612528565b610d58565b34801561049357600080fd5b50600854600160a81b900460ff1661031e565b3480156104b257600080fd5b506103a86104c13660046125f0565b610d78565b3480156104d257600080fd5b506104e66104e1366004612639565b610d97565b6040516102f591906126ae565b3480156104ff57600080fd5b50600854600160a01b900460ff1661031e565b34801561051e57600080fd5b5061037061052d3660046124c9565b610e63565b34801561053e57600080fd5b506102eb61054d36600461272b565b610e6e565b34801561055e57600080fd5b506103a8610ed6565b34801561057357600080fd5b506103a8610ee8565b34801561058857600080fd5b5061059c61059736600461272b565b610ef8565b6040516102f59190612746565b3480156105b557600080fd5b506103a8610ffc565b3480156105ca57600080fd5b506103a86105d93660046124fe565b61100c565b3480156105ea57600080fd5b506008546001600160a01b0316610370565b34801561060857600080fd5b506103a86106173660046124c9565b61101e565b34801561062857600080fd5b5061034361102b565b34801561063d57600080fd5b5061059c61064c36600461277e565b61103a565b34801561065d57600080fd5b506102eb600b5481565b34801561067357600080fd5b506103a86106823660046127b1565b6111db565b34801561069357600080fd5b50600054600019016102eb565b3480156106ac57600080fd5b506103a86106bb36600461280d565b61128e565b3480156106cc57600080fd5b506106e06106db3660046124c9565b6112d8565b6040516102f59190612875565b3480156106f957600080fd5b506103436107083660046124c9565b611360565b34801561071957600080fd5b506103436113fc565b34801561072e57600080fd5b506102eb61148a565b6103a86107453660046128ba565b611495565b34801561075657600080fd5b506102eb61076536600461272b565b611689565b34801561077657600080fd5b5061031e610785366004612901565b6001600160a01b03918216600090815260076020908152604080832093909416825291909152205460ff1690565b3480156107bf57600080fd5b506103a86107ce36600461272b565b6116b4565b6103a86107e13660046128ba565b611744565b3480156107f257600080fd5b506103a861179d565b60007f01ffc9a7000000000000000000000000000000000000000000000000000000006001600160e01b03198316148061085e57507f80ac58cd000000000000000000000000000000000000000000000000000000006001600160e01b03198316145b8061089257507f5b5e139f000000000000000000000000000000000000000000000000000000006001600160e01b03198316145b92915050565b6060600280546108a790612934565b80601f01602080910402602001604051908101604052809291908181526020018280546108d390612934565b80156109205780601f106108f557610100808354040283529160200191610920565b820191906000526020600020905b81548152906001019060200180831161090357829003601f168201915b5050505050905090565b6000610935826117ad565b61096b576040517fcf4700e400000000000000000000000000000000000000000000000000000000815260040160405180910390fd5b506000908152600660205260409020546001600160a01b031690565b600061099282610e63565b9050336001600160a01b038216146109e4576109ae8133610785565b6109e4576040517fcfb3b94200000000000000000000000000000000000000000000000000000000815260040160405180910390fd5b60008281526006602052604080822080547fffffffffffffffffffffffff0000000000000000000000000000000000000000166001600160a01b0387811691821790925591518593918516917f8c5be1e5ebec7d5bd14f71427d1e84f3dd0314c0f7b2291e5b200ac8c7c3b92591a4505050565b6000610a63826117e2565b9050836001600160a01b0316816001600160a01b031614610ab0576040517fa114810000000000000000000000000000000000000000000000000000000000815260040160405180910390fd5b60008281526006602052604090208054338082146001600160a01b03881690911417610b1657610ae08633610785565b610b16576040517f59c896be00000000000000000000000000000000000000000000000000000000815260040160405180910390fd5b6001600160a01b038516610b56576040517fea553b3400000000000000000000000000000000000000000000000000000000815260040160405180910390fd5b8015610b6157600082555b6001600160a01b038681166000908152600560205260408082208054600019019055918716808252919020805460010190554260a01b17600160e11b17600085815260046020526040812091909155600160e11b84169003610bf357600184016000818152600460205260408120549003610bf1576000548114610bf15760008181526004602052604090208490555b505b83856001600160a01b0316876001600160a01b03167fddf252ad1be2c89b69c2b068fc378daa952ba7f163c4a11628f55a4df523b3ef60405160405180910390a4505050505050565b610c4461186a565b600c55565b610c5161186a565b600260095403610ca85760405162461bcd60e51b815260206004820152601f60248201527f5265656e7472616e637947756172643a207265656e7472616e742063616c6c0060448201526064015b60405180910390fd5b60026009556000610cba606447612984565b600e549091506001600160a01b03166108fc610cd783600c6129a6565b6040518115909202916000818181858888f19350505050610cf757600080fd5b600f546001600160a01b03166108fc610d118360586129a6565b6040518115909202916000818181858888f19350505050610d3157600080fd5b506001600955565b610d4161186a565b600d55565b610d4e61186a565b610d566118c4565b565b610d738383836040518060200160405280600081525061128e565b505050565b610d8061186a565b8051610d9390600a906020840190612392565b5050565b60608160008167ffffffffffffffff811115610db557610db5612564565b604051908082528060200260200182016040528015610e0757816020015b604080516080810182526000808252602080830182905292820181905260608201528252600019909201910181610dd35790505b50905060005b828114610e5a57610e35868683818110610e2957610e296129c5565b905060200201356112d8565b828281518110610e4757610e476129c5565b6020908102919091010152600101610e0d565b50949350505050565b6000610892826117e2565b60006001600160a01b038216610eb0576040517f8f4eb60400000000000000000000000000000000000000000000000000000000815260040160405180910390fd5b506001600160a01b031660009081526005602052604090205467ffffffffffffffff1690565b610ede61186a565b610d566000611934565b610ef061186a565b610d5661199e565b60606000806000610f0885610e6e565b905060008167ffffffffffffffff811115610f2557610f25612564565b604051908082528060200260200182016040528015610f4e578160200160208202803683370190505b5060408051608081018252600080825260208201819052918101829052606081019190915290915060015b838614610ff057610f89816119fc565b91508160400151610fe85781516001600160a01b031615610fa957815194505b876001600160a01b0316856001600160a01b031603610fe85780838780600101985081518110610fdb57610fdb6129c5565b6020026020010181815250505b600101610f79565b50909695505050505050565b61100461186a565b610d56611a7b565b61101461186a565b610d938282611b23565b61102661186a565b600b55565b6060600380546108a790612934565b6060818310611075576040517f32c1995a00000000000000000000000000000000000000000000000000000000815260040160405180910390fd5b60008061108160005490565b9050600185101561109157600194505b8084111561109d578093505b60006110a887610e6e565b9050848610156110c757858503818110156110c1578091505b506110cb565b5060005b60008167ffffffffffffffff8111156110e6576110e6612564565b60405190808252806020026020018201604052801561110f578160200160208202803683370190505b509050816000036111255793506111d492505050565b6000611130886112d8565b905060008160400151611141575080515b885b8881141580156111535750848714155b156111c857611161816119fc565b925082604001516111c05782516001600160a01b03161561118157825191505b8a6001600160a01b0316826001600160a01b0316036111c057808488806001019950815181106111b3576111b36129c5565b6020026020010181815250505b600101611143565b50505092835250909150505b9392505050565b336001600160a01b0383160361121d576040517fb06307db00000000000000000000000000000000000000000000000000000000815260040160405180910390fd5b3360008181526007602090815260408083206001600160a01b03871680855290835292819020805460ff191686151590811790915590519081529192917f17307eab39ab6107e8899845ad3d59bd9653f200f220920489ca2b5937696c31910160405180910390a35050565b905090565b611299848484610a58565b6001600160a01b0383163b156112d2576112b584848484611b3d565b6112d2576040516368d2bf6b60e11b815260040160405180910390fd5b50505050565b604080516080810182526000808252602082018190529181018290526060810191909152604080516080810182526000808252602082018190529181018290526060810191909152600183108061133157506000548310155b1561133c5792915050565b611345836119fc565b90508060400151156113575792915050565b6111d483611c29565b606061136b826117ad565b6113a1576040517fa14c4b5000000000000000000000000000000000000000000000000000000000815260040160405180910390fd5b60006113ab611ca1565b905080516000036113cb57604051806020016040528060008152506111d4565b806113d584611cb0565b6040516020016113e69291906129db565b6040516020818303038152906040529392505050565b600a805461140990612934565b80601f016020809104026020016040519081016040528092919081815260200182805461143590612934565b80156114825780601f1061145757610100808354040283529160200191611482565b820191906000526020600020905b81548152906001019060200180831161146557829003601f168201915b505050505081565b600061128960015490565b600854600160a81b900460ff16156114ef5760405162461bcd60e51b815260206004820152600e60248201527f50726573616c6520636c6f7365640000000000000000000000000000000000006044820152606401610c9f565b6114f7611ce8565b60006115033383611d42565b90506115176008546001600160a01b031690565b6001600160a01b0316816001600160a01b0316146115775760405162461bcd60e51b815260206004820152601660248201527f4e6f7420617574686f72697a656420746f206d696e74000000000000000000006044820152606401610c9f565b3360009081526005602052604090819020546003916115a29186911c67ffffffffffffffff16612a0a565b11156116165760405162461bcd60e51b815260206004820152602160248201527f43616e206f6e6c79206d696e74203320746f6b656e732061742061646472657360448201527f73000000000000000000000000000000000000000000000000000000000000006064820152608401610c9f565b600d54836116276000546000190190565b6116319190612a0a565b111561167f5760405162461bcd60e51b815260206004820152601660248201527f45786365656473206d6178696d756d20737570706c79000000000000000000006044820152606401610c9f565b610d733384611b23565b6001600160a01b0381166000908152600560205260408082205467ffffffffffffffff911c16610892565b6116bc61186a565b6001600160a01b0381166117385760405162461bcd60e51b815260206004820152602660248201527f4f776e61626c653a206e6577206f776e657220697320746865207a65726f206160448201527f64647265737300000000000000000000000000000000000000000000000000006064820152608401610c9f565b61174181611934565b50565b600854600160a81b900460ff166114ef5760405162461bcd60e51b815260206004820152600b60248201527f53616c6520636c6f7365640000000000000000000000000000000000000000006044820152606401610c9f565b6117a561186a565b610d56611ddf565b6000816001111580156117c1575060005482105b8015610892575050600090815260046020526040902054600160e01b161590565b60008180600111611838576000548110156118385760008181526004602052604081205490600160e01b82169003611836575b806000036111d4575060001901600081815260046020526040902054611815565b505b6040517fdf2d9b4200000000000000000000000000000000000000000000000000000000815260040160405180910390fd5b6008546001600160a01b03163314610d565760405162461bcd60e51b815260206004820181905260248201527f4f776e61626c653a2063616c6c6572206973206e6f7420746865206f776e65726044820152606401610c9f565b6118cc611e8f565b600880547fffffffffffffffffffffff00ffffffffffffffffffffffffffffffffffffffff1690557f5db9ee0a495bf2e6ff9c91a7834c1ba4fdd244a5e8aa4e537bd38aeae4b073aa335b6040516001600160a01b03909116815260200160405180910390a1565b600880546001600160a01b038381167fffffffffffffffffffffffff0000000000000000000000000000000000000000831681179093556040519116919082907f8be0079c531659141344cd1fd0a4f28419497f9722a3daafe3b4186f6b6457e090600090a35050565b6119a6611ce8565b600880547fffffffffffffffffffffff00ffffffffffffffffffffffffffffffffffffffff16600160a01b1790557f62e78cea01bee320cd4e420270b5ea74000d11b0c9f74754ebdbfc544b05a2586119173390565b60408051608081018252600080825260208201819052918101829052606081019190915260008281526004602052604090205461089290604080516080810182526001600160a01b038316815260a083901c67ffffffffffffffff166020820152600160e01b831615159181019190915260e89190911c606082015290565b600854600160a81b900460ff16611ad45760405162461bcd60e51b815260206004820152600b60248201527f53616c6520636c6f7365640000000000000000000000000000000000000000006044820152606401610c9f565b600880547fffffffffffffffffffff00ffffffffffffffffffffffffffffffffffffffffff1690557f9e209206b95275a497262e47a30901f0716b2d6d19618dd5e9b7b68237e7cb7133611917565b610d93828260405180602001604052806000815250611ee8565b604051630a85bd0160e11b81526000906001600160a01b0385169063150b7a0290611b72903390899088908890600401612a22565b6020604051808303816000875af1925050508015611bad575060408051601f3d908101601f19168201909252611baa91810190612a5e565b60015b611c0b573d808015611bdb576040519150601f19603f3d011682016040523d82523d6000602084013e611be0565b606091505b508051600003611c03576040516368d2bf6b60e11b815260040160405180910390fd5b805181602001fd5b6001600160e01b031916630a85bd0160e11b1490505b949350505050565b604080516080810182526000808252602082018190529181018290526060810191909152610892611c59836117e2565b604080516080810182526001600160a01b038316815260a083901c67ffffffffffffffff166020820152600160e01b831615159181019190915260e89190911c606082015290565b6060600a80546108a790612934565b604080516080019081905280825b600183039250600a81066030018353600a900480611cbe5750819003601f19909101908152919050565b600854600160a01b900460ff1615610d565760405162461bcd60e51b815260206004820152601060248201527f5061757361626c653a20706175736564000000000000000000000000000000006044820152606401610c9f565b60408051606084901b7fffffffffffffffffffffffffffffffffffffffff00000000000000000000000016602080830191909152825160148184030181526034830184528051908201207f19457468657265756d205369676e6564204d6573736167653a0a333200000000605484015260708084019190915283518084039091018152609090920190925280519101206000906111d49083611f55565b600854600160a81b900460ff1615611e395760405162461bcd60e51b815260206004820152600e60248201527f50726573616c6520636c6f7365640000000000000000000000000000000000006044820152606401610c9f565b600880547fffffffffffffffffffff00ffffffffffffffffffffffffffffffffffffffffff16600160a81b1790557fb1412a7cd96bc4195d633c938189c320dcbeb2cff60c1b8bdd872678fb3514b46119173390565b600854600160a01b900460ff16610d565760405162461bcd60e51b815260206004820152601460248201527f5061757361626c653a206e6f74207061757365640000000000000000000000006044820152606401610c9f565b611ef28383611f79565b6001600160a01b0383163b15610d73576000548281035b611f1c6000868380600101945086611b3d565b611f39576040516368d2bf6b60e11b815260040160405180910390fd5b818110611f09578160005414611f4e57600080fd5b5050505050565b6000806000611f6485856120aa565b91509150611f71816120ef565b509392505050565b6000805490829003611fb7576040517fb562e8dd00000000000000000000000000000000000000000000000000000000815260040160405180910390fd5b6001600160a01b03831660008181526005602090815260408083208054680100000000000000018802019055848352600490915281206001851460e11b4260a01b178317905582840190839083907fddf252ad1be2c89b69c2b068fc378daa952ba7f163c4a11628f55a4df523b3ef8180a4600183015b81811461206657808360007fddf252ad1be2c89b69c2b068fc378daa952ba7f163c4a11628f55a4df523b3ef600080a460010161202e565b50816000036120a1576040517f2e07630000000000000000000000000000000000000000000000000000000000815260040160405180910390fd5b60005550505050565b60008082516041036120e05760208301516040840151606085015160001a6120d4878285856122a5565b945094505050506120e8565b506000905060025b9250929050565b600081600481111561210357612103612a7b565b0361210b5750565b600181600481111561211f5761211f612a7b565b0361216c5760405162461bcd60e51b815260206004820152601860248201527f45434453413a20696e76616c6964207369676e617475726500000000000000006044820152606401610c9f565b600281600481111561218057612180612a7b565b036121cd5760405162461bcd60e51b815260206004820152601f60248201527f45434453413a20696e76616c6964207369676e6174757265206c656e677468006044820152606401610c9f565b60038160048111156121e1576121e1612a7b565b036122395760405162461bcd60e51b815260206004820152602260248201527f45434453413a20696e76616c6964207369676e6174757265202773272076616c604482015261756560f01b6064820152608401610c9f565b600481600481111561224d5761224d612a7b565b036117415760405162461bcd60e51b815260206004820152602260248201527f45434453413a20696e76616c6964207369676e6174757265202776272076616c604482015261756560f01b6064820152608401610c9f565b6000807f7fffffffffffffffffffffffffffffff5d576e7357a4501ddfe92f46681b20a08311156122dc5750600090506003612389565b8460ff16601b141580156122f457508460ff16601c14155b156123055750600090506004612389565b6040805160008082526020820180845289905260ff881692820192909252606081018690526080810185905260019060a0016020604051602081039080840390855afa158015612359573d6000803e3d6000fd5b5050604051601f1901519150506001600160a01b03811661238257600060019250925050612389565b9150600090505b94509492505050565b82805461239e90612934565b90600052602060002090601f0160209004810192826123c05760008555612406565b82601f106123d957805160ff1916838001178555612406565b82800160010185558215612406579182015b828111156124065782518255916020019190600101906123eb565b50612412929150612416565b5090565b5b808211156124125760008155600101612417565b6001600160e01b03198116811461174157600080fd5b60006020828403121561245357600080fd5b81356111d48161242b565b60005b83811015612479578181015183820152602001612461565b838111156112d25750506000910152565b600081518084526124a281602086016020860161245e565b601f01601f19169290920160200192915050565b6020815260006111d4602083018461248a565b6000602082840312156124db57600080fd5b5035919050565b80356001600160a01b03811681146124f957600080fd5b919050565b6000806040838503121561251157600080fd5b61251a836124e2565b946020939093013593505050565b60008060006060848603121561253d57600080fd5b612546846124e2565b9250612554602085016124e2565b9150604084013590509250925092565b634e487b7160e01b600052604160045260246000fd5b600067ffffffffffffffff8084111561259557612595612564565b604051601f8501601f19908116603f011681019082821181831017156125bd576125bd612564565b816040528093508581528686860111156125d657600080fd5b858560208301376000602087830101525050509392505050565b60006020828403121561260257600080fd5b813567ffffffffffffffff81111561261957600080fd5b8201601f8101841361262a57600080fd5b611c218482356020840161257a565b6000806020838503121561264c57600080fd5b823567ffffffffffffffff8082111561266457600080fd5b818501915085601f83011261267857600080fd5b81358181111561268757600080fd5b8660208260051b850101111561269c57600080fd5b60209290920196919550909350505050565b6020808252825182820181905260009190848201906040850190845b81811015610ff0576127188385516001600160a01b03815116825267ffffffffffffffff602082015116602083015260408101511515604083015262ffffff60608201511660608301525050565b92840192608092909201916001016126ca565b60006020828403121561273d57600080fd5b6111d4826124e2565b6020808252825182820181905260009190848201906040850190845b81811015610ff057835183529284019291840191600101612762565b60008060006060848603121561279357600080fd5b61279c846124e2565b95602085013595506040909401359392505050565b600080604083850312156127c457600080fd5b6127cd836124e2565b9150602083013580151581146127e257600080fd5b809150509250929050565b600082601f8301126127fe57600080fd5b6111d48383356020850161257a565b6000806000806080858703121561282357600080fd5b61282c856124e2565b935061283a602086016124e2565b925060408501359150606085013567ffffffffffffffff81111561285d57600080fd5b612869878288016127ed565b91505092959194509250565b81516001600160a01b0316815260208083015167ffffffffffffffff169082015260408083015115159082015260608083015162ffffff169082015260808101610892565b600080604083850312156128cd57600080fd5b82359150602083013567ffffffffffffffff8111156128eb57600080fd5b6128f7858286016127ed565b9150509250929050565b6000806040838503121561291457600080fd5b61291d836124e2565b915061292b602084016124e2565b90509250929050565b600181811c9082168061294857607f821691505b60208210810361296857634e487b7160e01b600052602260045260246000fd5b50919050565b634e487b7160e01b600052601160045260246000fd5b6000826129a157634e487b7160e01b600052601260045260246000fd5b500490565b60008160001904831182151516156129c0576129c061296e565b500290565b634e487b7160e01b600052603260045260246000fd5b600083516129ed81846020880161245e565b835190830190612a0181836020880161245e565b01949350505050565b60008219821115612a1d57612a1d61296e565b500190565b60006001600160a01b03808716835280861660208401525083604083015260806060830152612a54608083018461248a565b9695505050505050565b600060208284031215612a7057600080fd5b81516111d48161242b565b634e487b7160e01b600052602160045260246000fdfea2646970667358221220eccb896482ea9543f1ca3807504c088aed6ca4069e2c7e839021416632d1c2f064736f6c634300080e0033",
  "immutableReferences": {},
  "source": "// SPDX-License-Identifier: MIT\npragma solidity ^0.8.9;\n\nimport \"erc721a/contracts/extensions/ERC721AQueryable.sol\";\nimport \"@openzeppelin/contracts/access/Ownable.sol\";\nimport \"@openzeppelin/contracts/security/Pausable.sol\";\nimport \"@openzeppelin/contracts/utils/math/SafeMath.sol\";\nimport \"@openzeppelin/contracts/utils/cryptography/ECDSA.sol\";\nimport \"@openzeppelin/contracts/security/ReentrancyGuard.sol\";\n\nimport \"./Presalable.sol\";\n\ncontract HappyPlanetClub is ERC721AQueryable, Ownable, Pausable, Presalable, ReentrancyGuard {\n  using SafeMath for uint;\n  using ECDSA for bytes32;\n\n  string public baseTokenURI;\n\n  uint256 public price = 0.01 ether;\n  uint256 public presalePrice = 0.01 ether;\n  uint256 public maxTotalSupply = 4444;\n\n  address t1 = 0xFe5361E534aA22E9052b50605b8F932Fc42a2F2f;\n  address t2 = 0xFe5361E534aA22E9052b50605b8F932Fc42a2F2f;\n\n  constructor(string memory _baseTokenURI) ERC721A(\"Happy Planet Club\", \"HPC\")  {\n    setBaseURI(_baseTokenURI);\n    presale();\n  }\n\n  function totalMinted() public view returns (uint256) {\n    return _totalMinted();\n  }\n\n  function totalBurned() public view returns (uint256) {\n    return _totalBurned();\n  }\n\n  function numberMinted(address owner) public view returns (uint256) {\n    return _numberMinted(owner);\n  }\n\n  function mint(uint256 _amount, bytes memory _signature) public payable whenNotPresaled whenNotPaused {\n    address signer = _recoverSigner(msg.sender, _signature);\n    \n    require(signer == owner(), \"Not authorized to mint\");\n    require(_numberMinted(msg.sender) + _amount <= 3, \"Can only mint 3 tokens at address\");\n    require(_totalMinted() + _amount <= maxTotalSupply, \"Exceeds maximum supply\");\n\n    _safeMint(msg.sender, _amount);\n  }\n\n  function presaleMint(uint256 _amount, bytes memory _signature) public payable whenPresaled whenNotPaused {        \n    address signer = _recoverSigner(msg.sender, _signature);\n\n    require(signer == owner(), \"Not authorized to mint\");\n    require(_numberMinted(msg.sender) + _amount <= 3, \"Can only mint 3 tokens at address\");\n    require(_totalMinted() + _amount <= maxTotalSupply, \"Exceeds maximum supply\");\n\n    _safeMint(msg.sender, _amount);\n  }\n\n  function airdrop(address _owner, uint256 _amount) public onlyOwner {\n    _safeMint(_owner, _amount);\n  }\n\n  function _baseURI() internal view virtual override returns (string memory) {\n    return baseTokenURI;\n  }\n\n  function setBaseURI(string memory _baseTokenURI) public onlyOwner {\n    baseTokenURI = _baseTokenURI;\n  }\n\n  function setPrice(uint256 _newPrice) public onlyOwner{\n    price = _newPrice;\n  }\n\n  function setPresalePrice(uint256 _newPrice) public onlyOwner{\n    presalePrice = _newPrice;\n  }\n\n  function setMaxTotalSupply(uint256 _count) public onlyOwner{\n    maxTotalSupply = _count;\n  }\n\n  function withdraw() external onlyOwner nonReentrant {\n    uint256 _balance = address(this).balance / 100;\n\n    require(payable(t1).send(_balance * 12));\n    require(payable(t2).send(_balance * 88));\n  }\n\n  function pause() public onlyOwner {\n    _pause();\n  }\n\n  function unpause() public onlyOwner {\n    _unpause();\n  }\n\n  function presale() public onlyOwner {\n    _presale();\n  }\n\n  function unpresale() public onlyOwner {\n    _unpresale();\n  }\n\n  function _recoverSigner(address _wallet, bytes memory _signature) private pure returns (address){\n    return keccak256(abi.encodePacked(_wallet)).toEthSignedMessageHash().recover(_signature);\n  }\n\n  function _startTokenId() internal view virtual override returns (uint256) {\n    return 1;\n  }\n}",
  "sourcePath": "/Users/doss/Projects/happyplanetclub/packages/truffle/contracts/HappyPlanetClub.sol",
  "compiler": {
    "name": "solc",
    "version": "0.8.14+commit.80d49f37.Emscripten.clang"
  },
  "schemaVersion": "3.4.7",
  "updatedAt": "2022-08-20T22:46:48.776Z",
  "networkType": "ethereum",
  "devdoc": {
    "kind": "dev",
    "methods": {
      "approve(address,uint256)": {
        "details": "Gives permission to `to` to transfer `tokenId` token to another account. The approval is cleared when the token is transferred. Only a single account can be approved at a time, so approving the zero address clears previous approvals. Requirements: - The caller must own the token or be an approved operator. - `tokenId` must exist. Emits an {Approval} event."
      },
      "balanceOf(address)": {
        "details": "Returns the number of tokens in `owner`'s account."
      },
      "explicitOwnershipOf(uint256)": {
        "details": "Returns the `TokenOwnership` struct at `tokenId` without reverting. If the `tokenId` is out of bounds: - `addr = address(0)` - `startTimestamp = 0` - `burned = false` - `extraData = 0` If the `tokenId` is burned: - `addr = <Address of owner before token was burned>` - `startTimestamp = <Timestamp when token was burned>` - `burned = true` - `extraData = <Extra data when token was burned>` Otherwise: - `addr = <Address of owner>` - `startTimestamp = <Timestamp of start of ownership>` - `burned = false` - `extraData = <Extra data at start of ownership>`"
      },
      "explicitOwnershipsOf(uint256[])": {
        "details": "Returns an array of `TokenOwnership` structs at `tokenIds` in order. See {ERC721AQueryable-explicitOwnershipOf}"
      },
      "getApproved(uint256)": {
        "details": "Returns the account approved for `tokenId` token. Requirements: - `tokenId` must exist."
      },
      "isApprovedForAll(address,address)": {
        "details": "Returns if the `operator` is allowed to manage all of the assets of `owner`. See {setApprovalForAll}."
      },
      "name()": {
        "details": "Returns the token collection name."
      },
      "owner()": {
        "details": "Returns the address of the current owner."
      },
      "ownerOf(uint256)": {
        "details": "Returns the owner of the `tokenId` token. Requirements: - `tokenId` must exist."
      },
      "paused()": {
        "details": "Returns true if the contract is paused, and false otherwise."
      },
      "renounceOwnership()": {
        "details": "Leaves the contract without owner. It will not be possible to call `onlyOwner` functions anymore. Can only be called by the current owner. NOTE: Renouncing ownership will leave the contract without an owner, thereby removing any functionality that is only available to the owner."
      },
      "safeTransferFrom(address,address,uint256)": {
        "details": "Equivalent to `safeTransferFrom(from, to, tokenId, '')`."
      },
      "safeTransferFrom(address,address,uint256,bytes)": {
        "details": "Safely transfers `tokenId` token from `from` to `to`. Requirements: - `from` cannot be the zero address. - `to` cannot be the zero address. - `tokenId` token must exist and be owned by `from`. - If the caller is not `from`, it must be approved to move this token by either {approve} or {setApprovalForAll}. - If `to` refers to a smart contract, it must implement {IERC721Receiver-onERC721Received}, which is called upon a safe transfer. Emits a {Transfer} event."
      },
      "setApprovalForAll(address,bool)": {
        "details": "Approve or remove `operator` as an operator for the caller. Operators can call {transferFrom} or {safeTransferFrom} for any token owned by the caller. Requirements: - The `operator` cannot be the caller. Emits an {ApprovalForAll} event."
      },
      "supportsInterface(bytes4)": {
        "details": "Returns true if this contract implements the interface defined by `interfaceId`. See the corresponding [EIP section](https://eips.ethereum.org/EIPS/eip-165#how-interfaces-are-identified) to learn more about how these ids are created. This function call must use less than 30000 gas."
      },
      "symbol()": {
        "details": "Returns the token collection symbol."
      },
      "tokenURI(uint256)": {
        "details": "Returns the Uniform Resource Identifier (URI) for `tokenId` token."
      },
      "tokensOfOwner(address)": {
        "details": "Returns an array of token IDs owned by `owner`. This function scans the ownership mapping and is O(`totalSupply`) in complexity. It is meant to be called off-chain. See {ERC721AQueryable-tokensOfOwnerIn} for splitting the scan into multiple smaller scans if the collection is large enough to cause an out-of-gas error (10K collections should be fine)."
      },
      "tokensOfOwnerIn(address,uint256,uint256)": {
        "details": "Returns an array of token IDs owned by `owner`, in the range [`start`, `stop`) (i.e. `start <= tokenId < stop`). This function allows for tokens to be queried if the collection grows too big for a single call of {ERC721AQueryable-tokensOfOwner}. Requirements: - `start < stop`"
      },
      "totalSupply()": {
        "details": "Returns the total number of tokens in existence. Burned tokens will reduce the count. To get the total number of tokens minted, please see {_totalMinted}."
      },
      "transferFrom(address,address,uint256)": {
        "details": "Transfers `tokenId` from `from` to `to`. Requirements: - `from` cannot be the zero address. - `to` cannot be the zero address. - `tokenId` token must be owned by `from`. - If the caller is not `from`, it must be approved to move this token by either {approve} or {setApprovalForAll}. Emits a {Transfer} event."
      },
      "transferOwnership(address)": {
        "details": "Transfers ownership of the contract to a new account (`newOwner`). Can only be called by the current owner."
      }
    },
    "version": 1
  },
  "userdoc": {
    "errors": {
      "ApprovalCallerNotOwnerNorApproved()": [
        {
          "notice": "The caller must own the token or be an approved operator."
        }
      ],
      "ApprovalQueryForNonexistentToken()": [
        {
          "notice": "The token does not exist."
        }
      ],
      "ApproveToCaller()": [
        {
          "notice": "The caller cannot approve to their own address."
        }
      ],
      "BalanceQueryForZeroAddress()": [
        {
          "notice": "Cannot query the balance for the zero address."
        }
      ],
      "InvalidQueryRange()": [
        {
          "notice": "Invalid query range (`start` >= `stop`)."
        }
      ],
      "MintERC2309QuantityExceedsLimit()": [
        {
          "notice": "The `quantity` minted with ERC2309 exceeds the safety limit."
        }
      ],
      "MintToZeroAddress()": [
        {
          "notice": "Cannot mint to the zero address."
        }
      ],
      "MintZeroQuantity()": [
        {
          "notice": "The quantity of tokens minted must be more than zero."
        }
      ],
      "OwnerQueryForNonexistentToken()": [
        {
          "notice": "The token does not exist."
        }
      ],
      "OwnershipNotInitializedForExtraData()": [
        {
          "notice": "The `extraData` cannot be set on an unintialized ownership slot."
        }
      ],
      "TransferCallerNotOwnerNorApproved()": [
        {
          "notice": "The caller must own the token or be an approved operator."
        }
      ],
      "TransferFromIncorrectOwner()": [
        {
          "notice": "The token must be owned by `from`."
        }
      ],
      "TransferToNonERC721ReceiverImplementer()": [
        {
          "notice": "Cannot safely transfer to a contract that does not implement the ERC721Receiver interface."
        }
      ],
      "TransferToZeroAddress()": [
        {
          "notice": "Cannot transfer to the zero address."
        }
      ],
      "URIQueryForNonexistentToken()": [
        {
          "notice": "The token does not exist."
        }
      ]
    },
    "kind": "user",
    "methods": {},
    "version": 1
  }
}